:020000040800F2
:10000000D0070020910100080F1E0008A31A000865
:100010000D1E0008EB050008512500080000000037
:100020000000000000000000000000002320000885
:10003000ED05000800000000212000082520000830
:10004000AB010008AB010008AB010008AB010008E0
:10005000AB010008AB010008AB010008AB010008D0
:10006000AB010008AB010008AB010008AB010008C0
:10007000AB010008AB010008AB010008AB010008B0
:10008000AB010008AB010008AB010008AB010008A0
:10009000AB010008AB010008AB010008AB01000890
:1000A000AB010008AB010008AB010008AB01000880
:1000B00075200008AB010008AB010008AB01000887
:1000C000AB010008AB010008AB010008AB01000860
:1000D000AB01000845250008AB010008AB01000892
:1000E000AB010008AB010008AB01000800F002F80A
:1000F00000F03FF80AA090E8000C82448344AAF183
:100100000107DA4501D100F034F8AFF2090EBAE880
:100110000F0013F0010F18BFFB1A43F0010318473B
:10012000EC2A00000C2B0000103A24BF78C878C1DC
:10013000FAD8520724BF30C830C144BF04680C60ED
:10014000704700000023002400250026103A28BF35
:1001500078C1FBD8520728BF30C148BF0B60704739
:10016000642900F07180002070471FB51FBD10B5D5
:1001700010BD00F000FA1146FFF7F7FF02F000FA99
:1001800000F01EFA03B4FFF7F2FF03BC00F026FAFA
:100190000948804709480047FEE7FEE7FEE7FEE71B
:1001A000FEE7FEE7FEE7FEE7FEE7FEE70448054957
:1001B000054A064B7047000071200008ED0000085A
:1001C000D0010020D0070020D0030020D003002061
:1001D0000FB41CB5074B06AA7B44694600900598EE
:1001E00000F0B1F90020694600F0C0F91CBC5DF8D0
:1001F00014FB00009103000070B504468569006897
:10020000C10601D5302600E02026C00707D070BD0A
:10021000D4E9012130469047206A401C20626D1EBF
:10022000F6D570BD70B5044685690078C00707D162
:1002300070BDD4E9012120209047206A401C206233
:100240006D1EF6D570BD00002DE9F0410646002474
:1002500010687529314616A510D0AFF3008000282C
:1002600002DA404213A507E031688A0701D512A5DA
:1002700002E0490704D511A5012401E0AFF3008095
:1002800000210A2206F1240709E0B0FBF2FCB0FBD2
:10029000F2F302FB1C00303078541846491C002849
:1002A000F3D123462A463046BDE8F04100F0EDB8D0
:1002B000000000002D0000002B00000020000000C6
:1002C0002DE9F05F894604464FF0000ADFF824B1BB
:1002D000FB44C0F820A02046E168884700287DD074
:1002E000252806D0D4E901219047206A401C2062CD
:1002F000F1E700255F462046E1688847202806464A
:1003000007DB312E05D2B81910F8200C08B10543CF
:10031000F1E7A80701D525F00405C4F81CA00027C3
:10032000C4F818A02A2E09D0304602F022F938B3BA
:1003300004EB8708303EC8F8186019E059F8041B30
:10034000204604EB87029161E1688847012F064649
:1003500018D1E069002820DA25F020051DE0D8F842
:10036000180000EB800006EB40003038C8F8180099
:100370002046E1688847064602F0FBF80028EED1E7
:10038000012F0AD02E2E08D12046E16888477F1C15
:100390000646022F45F02005C4DBA069002803DAD9
:1003A000404245F00105A061E80701D025F01005A5
:1003B000A6B1A6F14100192802D8203645F40065FF
:1003C0004A463146204625604D46FFF7C9FE60B1DA
:1003D000012807D0ED1D25F0070000E007E000F13F
:1003E000080978E705F1040975E730467AE7206ADD
:1003F000BDE8F09F2429000010B5431C02E010F86E
:10040000011B71B18107FAD14FF0013202C88C1A79
:100410008C4314EAC211F9D0C01A0A0603D0C01ED8
:1004200010BDC01A10BD0A0401D0801E10BD090203
:10043000FCD0401E10BD4FF0000200B5134694469C
:100440009646203922BFA0E80C50A0E80C50B1F12C
:100450002001BFF4F7AF090728BFA0E80C5048BF40
:100460000CC05DF804EB890028BF40F8042B08BFDE
:10047000704748BF20F8022B11F0804F18BF00F8DA
:10048000012B70477047704770472DE9F0470D46C4
:1004900099469246044600F124080168880604D56E
:1004A000E06921F01001216000E00120A84201DD97
:1004B000471B00E00027A1697A1902EB0900081A1E
:1004C000A0612078C00602D42046FFF795FE0026E2
:1004D00008E0D4E901211AF806009047206A401C80
:1004E000761C20624E45F4DB2078C0060AD52046F3
:1004F000FFF782FE06E0D4E9012130209047206A10
:10050000401C2062381EA7F10107F4DC07E0D4E9A3
:10051000012118F805009047206A401C2062281E1F
:10052000A5F10105F3DC2046FFF77CFE20780006EC
:1005300002D50220BDE8F0870120FBE701694A1CD3
:1005400002610878704700B58FB0CDE90131002114
:10055000059105497944CDE9031011466846FFF736
:10056000AFFE0FB000BD0000E5FFFFFF0A6802F814
:10057000010B0A607047754600F02CF8AE46050086
:100580006946534620F00700854618B020B5FFF7AE
:100590000DFEBDE820404FF000064FF000074FF081
:1005A00000084FF0000B21F00701AC46ACE8C00991
:1005B000ACE8C009ACE8C009ACE8C0098D4670479A
:1005C00010B50446AFF300802046BDE81040FFF7A9
:1005D000D9BD0000004870476C0100200149182077
:1005E000ABBEFEE7260002007047FEE7704710B57D
:1005F00090F821100022022905D00421816380F89F
:100600002020012010BD01680B6823F00E030B6051
:1006100001680B6823F001030B6090F84030C46B55
:10062000012101FA03F3636080F8211080F8202093
:10063000104610BD10B590F821100024022903D0F7
:100640000421816301243DE001680A6822F00E0262
:100650000A6001680A6822F001020A601A4A016809
:10066000914201D1012121E0174A1432914201D176
:1006700010211BE0144A2832914201D1891515E05E
:10068000114A3C32914201D189140FE00E4A503296
:10069000914202D14FF4803108E00B4A643291421A
:1006A00002D14FF4801101E04FF08071064A083A00
:1006B0005160012180F82110002180F82010416B49
:1006C00001B18847204610BD0800024070B50446BD
:1006D00000F008F90546601C02D004480078044484
:1006E00000F000F9401BA042FAD370BD14000020B6
:1006F0002DE9F84FDFF8B8910024A9F1040B234647
:100700000F2709F1040AABF1040EC9E00125A54049
:100710002A40AA427DD1674ED1F804C0ACEB06084E
:10072000B44532D014DCBCF1030F3AD009DCBCF183
:10073000000F2AD0BCF1010F1CD0BCF1020F31D147
:100740001DE0BCF1110F17D0BCF1120F2AD119E036
:10075000B8F5881F19D006DCB8F5803F15D0B8F57C
:10076000801F1FD111E0B8F5001F0ED0B8F5041F8F
:1007700018D10AE0CB6815E0CB681B1D12E0CB68EE
:1007800008330FE0CB680C330CE08B682BB1012BE6
:100790004FF0080303D0456104E0042302E0056143
:1007A00000E00023FF2A01D8064601E000F104061C
:1007B0004FEA840501D9A5F12005D6F8008007FA93
:1007C00005FC28EA0C0803FA05F548EA0508C6F80E
:1007D00000804D68ED0062D5374DAE6946F00106E8
:1007E000AE61AD6924F0030605F001050095334DB7
:1007F00006EB050CDCF80850A607360F07FA06F8DA
:1008000025EA0805DFF8B880404503D14FF000081D
:1008100017E044E0DFF8AC80404502D14FF001081A
:100820000FE0DFF8A480404502D14FF0020808E055
:10083000DFF89880404502D14FF0030801E04FF007
:10084000040808FA06F848EA0508CCF808804D685C
:10085000D9F80060ED024D4601D5164300E09643FD
:100860002E604D68DAF80060AD02554601D516439A
:1008700000E096432E604D68DBF80060AD035D46F6
:1008800001D5164300E096432E604D68DEF8006007
:10089000ED03754601D5164300E096432E60641CB7
:1008A0000D682A46E5407FF431AFBDE8F88F0000BF
:1008B0000804014000001110001002400000014037
:1008C00000080140000C01400010014000140140EC
:1008D0008068084000D0012070470AB1016170476C
:1008E0000904FBE7014880687047000014000020FD
:1008F000024881680278114481607047140000202A
:10090000074810B5016841F010010160032000F0B4
:1009100075F80F2000F006F800F024F8002010BD54
:100920000020024070B50D4D04464FF47A712878CE
:10093000B1FBF0F00A490968B1FBF0F000F0DCFA15
:1009400048B9102C07D200222146501E00F036F87C
:1009500000206C6070BD012070BD000014000020FC
:10096000200000200C4808B5816941F00101816137
:10097000816901F001010091C16941F08051C161BB
:10098000C06900F0805000900448416821F0E061A7
:1009900041F00071416008BD0010024000000140BC
:1009A000002809DB00F01F0201219140400980006E
:1009B00000F1E020C0F8001170470000F0B40E4BC9
:1009C0001B680C46C3F30223C3F10705042D00D9AD
:1009D0000425191D072901D2002300E0DB1E012692
:1009E00006FA05F1491E214099409E40761E1640A8
:1009F0003143F0BC01F0ADBD0CED00E0064900F064
:100A0000070208684FF6FF03184040EA0220034A35
:100A100010430860704700000CED00E00000FA058C
:100A20002DE9F0470F46050061D0434E306800F0D5
:100A30000700B84209D2306820F007003843306020
:100A4000306800F00700B84251D128683B4C81075C
:100A500012D5400703D5606840F4E06060602878F4
:100A6000000703D5606840F4605060606068A96862
:100A700020F0F000084360602878C00728D068683C
:100A8000012810D02168022810D0890700292EDA09
:100A9000616821F0030101436160FFF723FF804695
:100AA00041F288390DE021688903EFE78901EDE71C
:100AB000FFF718FFA0EB0801494502D90320BDE864
:100AC000F0876068696800F00C00B0EB810FEFD12F
:100AD000306800F00700B8420BD9306820F00700FA
:100AE00038433060306800F00700B84201D0012080
:100AF000E5E72878400705D56068E96820F4E060FC
:100B0000084360602878000706D56068296920F4EA
:100B1000605040EAC100606000F038F86168084A3F
:100B2000C1F30311515CC8400649086006480068DB
:100B3000FFF7F8FE0020C2E700200240001002404C
:100B4000E02B000820000020180000200448054980
:100B500000684968044AC1F30221515CC8407047EB
:100B60002000002000100240F02B00080448054936
:100B700000684968044AC1F3C221515CC84070470B
:100B80002000002000100240F02B00080E4A51689F
:100B90000E4801F00C03042B11D0082B0FD10C4888
:100BA000C1F38343C903C05C0AD55168084AC1F345
:100BB0004041921E515C054A5043B0FBF1F0704732
:100BC00004494843704700000010024000127A00B8
:100BD000D02B000800093D002DE9F84F040070D02B
:100BE0002078C04DC00749D06868C0F38100012853
:100BF00007D06868C0F38100022809D16868C00383
:100C000006D52868800339D560680028E7D035E02C
:100C10006068B0F5803F0BD010B1B0F5A02F11D0B7
:100C2000286820F480302860286820F4802002E0C2
:100C3000286840F480302860606890B1FFF752FE69
:100C400006460AE0286840F480202860F0E700BFEC
:100C5000FFF748FE801B642873D828688003F7D507
:100C60000CE0FFF73FFE064605E000BFFFF73AFE47
:100C7000801B6428F0D828688003F7D420789A4E27
:100C800080074FF001094FF0000839D5686810F06F
:100C90000C0F07D06868C0F38100022809D168688A
:100CA000C00306D42868800714D52069012808D11C
:100CB00010E02069B0B1C6F80090FFF713FE0746B8
:100CC00005E00AE1FFF70EFEC01B0228C4D8286821
:100CD0008007F7D52868616920F0F80040EAC10074
:100CE00028600DE0C6F80080FFF7FCFD074604E031
:100CF000FFF7F8FDC01B022823D828688007F7D427
:100D0000207800072CD57948A169D9B1C0F80090A6
:100D1000FFF7E8FD074604E0FFF7E4FDC01B0228EB
:100D20000FD8686A8007F7D571484FF4FA51006808
:100D3000B0FBF1F0009000BF0098411E0091FAD284
:100D40000EE080E0C0F80080FFF7CCFD074604E02D
:100D5000FFF7C8FDC01B022875D8686A8007F7D462
:100D60002078400760D5E8690027C00008D4E8690A
:100D700040F08050E861E869012700F08050009061
:100D80005C480168C90513D40168834641F4807149
:100D90000160FFF7A7FD824606E000BFFFF7A2FD56
:100DA000A0EB0A0064284ED8DBF80000C005F5D59A
:100DB000E06801280AD008B1052813D0286A20F07D
:100DC00001002862286A20F0040002E0286A40F04E
:100DD00001002862E06841F2883B98B1FFF782FD8C
:100DE00082460BE0286A40F004002862EEE700BF6C
:100DF000FFF778FDA0EB0A0159455AD8286A800709
:100E0000F6D50CE0FFF76EFD824605E0FFF76AFDC0
:100E1000A0EB0A0159454CD8286A8007F6D41FB1C7
:100E2000E86920F08050E861E06988B36968C1F33F
:100E30008101022944D00228C6F8608004D0FFF75F
:100E400051FD044638E034E0FFF74CFD074604E06E
:100E5000FFF748FDC01B02282BD828688001F7D473
:100E6000206AB0F5803F05D16868A16820F40030A1
:100E700008436860D4E908010843696821F47411E3
:100E800008436860C6F86090FFF72CFD044606E052
:100E900025E000BFFFF726FD001B022809D82868BF
:100EA0008001F7D51BE000BFFFF71CFD001B0228E7
:100EB00002D90320BDE8F88F28688001F4D40EE041
:100EC0000128F7D06868226A00F48031914204D189
:100ED000616A00F47010884201D00120EAE7002026
:100EE000E8E7000000100240000042428004424255
:100EF000200000200070004010B5401EB0F1807F3F
:100F000001D3012010BD4FF0E02460610F21601774
:100F100001F01FFB0020A06107202061002010BD10
:100F20007047704710B590F83C20012A22D001226A
:100F300080F83C20CA688C6822F4407222434C68D6
:100F400022F4806222430C6822F4006222430C697E
:100F500022F4805222434C6922F400522243C96990
:100F6000002322F480420A4301684A6480F83C303E
:100F7000002010BD022010BD70B590F83C20012A61
:100F800026D0012480F83C40022280F83D200368EE
:100F90005A689D6822F070060A6832435A600D4B09
:100FA00002689A4208D0B2F1804F05D00A4B9A42AB
:100FB00002D00A4B9A4204D1496825F080031943B4
:100FC000916080F83D40002180F83C10084670BDDB
:100FD000022070BD002C01400004004000080040C9
:100FE00010B5040003D094F83D0010B107E00120D3
:100FF00010BD002084F83C00204600F01FF80220BD
:1010000084F83D00211D206801F03AF8012084F8A1
:10101000460084F83E0084F83F0084F8400084F8DD
:10102000410084F8420084F8430084F8440084F8C6
:10103000450084F83D00002010BD000008B5114AAD
:1010400001681148914208D1816941F400618161D0
:10105000806900F40060009008BDB1F1804FFBD1C1
:10106000C16941F00101C161C069002200F00100C5
:10107000009011461C20FFF7A1FCBDE808401C2091
:10108000FFF78EBC002C01400010024090F83D108C
:10109000012901D001207047022180F83D1001682C
:1010A000CA6842F00102CA6000680B49884208D051
:1010B000B0F1804F05D00949884202D008498842E2
:1010C00004D1816801F00701062903D0016841F0CD
:1010D0000101016000207047002C01400004004025
:1010E0000008004070B5044690F83C000025012837
:1010F00017D0012684F83C60022084F83D00206867
:10110000826822F0770222F47F42826008685028C9
:1011100038D00DDC20284FD005DC90B3102811D139
:101120004AE0022070BD302846D040280AD13BE07A
:1011300060282FD070280DD0B0F5805F03D0B0F5B7
:10114000005F12D0012584F83D60002084F83C0047
:10115000284670BDCB68D1E90121206800F0D9FF95
:101160002068816841F0770109E0CB68D1E901216D
:10117000206800F0CEFF2068816841F480418160E2
:10118000E1E719E0CA684968206801F077F8502162
:10119000206806E0CA684968206801F080F860218C
:1011A000206800F0C0FFCEE7CA684968206801F0F7
:1011B00065F840212068F4E7226801461046F0E710
:1011C00070472DE9F04104460068C66805694FF094
:1011D0000007A90713D5B10711D5F91E0161012038
:1011E0002077206880698007204602D0FFF7E8FF5B
:1011F00004E000F0A5F8204600F037F927776807EB
:1012000016D5700714D521686FF00400086102201C
:1012100020772068806910F4407F204602D0FFF7D5
:10122000CFFF04E000F08CF8204600F01EF927778D
:10123000280715D5300713D521686FF0080008611D
:10124000042020772068C0698007204602D0FFF77D
:10125000B7FF04E000F074F8204600F006F92777A5
:10126000E80616D5F00614D521686FF01000086165
:10127000082020772068C06910F4407F204602D003
:10128000FFF79EFF04E000F05BF8204600F0EDF869
:101290002777E80708D0F00706D021686FF0010033
:1012A0000861204600F030F9280608D5300606D53A
:1012B00021686FF0800008612046FFF731FE680664
:1012C00008D5700606D521686FF0400008612046F9
:1012D00000F0CCF9A8060AD5B00608D521686FF051
:1012E000200008612046BDE8F041FFF71ABEBDE8C6
:1012F000F081000000B585B00021009101910291BC
:10130000039100680B49884212D10B48816941F072
:10131000040181618069694600F0040004904FF483
:10132000807000900220019003900448FFF7E0F9DC
:1013300005B000BD002C0140001002400008014033
:10134000704770B5044690F83C0000260D46012811
:101350000FD0012084F83C006AB1042A1DD0082A6D
:101360002FD00C2A3FD00126002084F83C003046C4
:1013700070BD022070BD206800F0DEFE206881692B
:1013800041F0080181612068816921F004018161D7
:10139000206881692A69114311E0206800F0F4FE99
:1013A0002068816941F4006181612068816921F4CC
:1013B00080618161206881692A6941EA0221816135
:1013C000D2E7206800F00CFF2068C16941F00801F5
:1013D000C1612068C16921F00401C1612068C1694F
:1013E0002A69114311E0206800F026FF2068C169D6
:1013F00041F40061C1612068C16921F48061C1616B
:101400002068C1692A6941EA0221C161ACE710B5CF
:10141000040003D094F83D0010B107E0012010BD96
:10142000002084F83C00204600F01EF8022084F8DA
:101430003D00211D206800F023FE012084F84600B5
:1014400084F83E0084F83F0084F8400084F84100AE
:1014500084F8420084F8430084F8440084F845008E
:1014600084F83D00002010BD7047704710B5044659
:10147000022249B104290ED0082913D094F8410062
:10148000012816D0012010BD94F83E000128F9D1A2
:1014900084F83E200FE094F83F000128F2D184F850
:1014A0003F2008E094F840000128EBD184F8402068
:1014B00001E084F841200122206800F01DFE0F4960
:1014C0002068884203D1426C42F4004242642068A2
:1014D000884208D0B0F1804F05D00949884202D037
:1014E0000849884204D1816801F00701062903D028
:1014F000016841F001010160002010BD002C014095
:1015000000040040000800402DE9F0410068B0F1FF
:10151000804F7CD1514C207A514F524E002568B1FA
:1015200000221E213046FFF7D8F93868C563BDE8B0
:10153000F041002206214C48FFF7CFB92069401C3A
:1015400020616089401C80B26081642823D365815A
:1015500000221E213046FFF7C0F9207830B1012863
:1015600007D0022808D0032809D00DE0012202216B
:1015700007E00122042104E00122082101E0012208
:1015800010213046FFF7A9F92078401CC0B2207026
:10159000032800D92570324861789038012902D09B
:1015A000022910D01FE0A189491CA18189071AD105
:1015B000A178491CC9B2A17000684163642912D3A3
:1015C000022060700EE0A189491CA181C9070AD1DF
:1015D000A17809B1491EA170006811F0FF014163B3
:1015E00001D16570A5812021B0463046FFF770F922
:1015F000012670B1657140214046FFF769F998B145
:10160000A57180214046FFF763F9E0B1E571BDE8BF
:10161000F08160790028EED1667160780028EAD107
:101620006670A570A581E6E7A0790028E9D1A671CA
:10163000E0781430C0B2E070642800D3E5703968F7
:10164000E078C863DDE7E0790028E0D1E671207931
:1016500010B100202071DAE70120FBE70000002034
:10166000B400002000080140000C014070477047A2
:1016700070470000F8B5016804460868CA684B69FD
:1016800010F00F0F4FF0000559D003F0010602F4DF
:101690009077374365D0C10705D0D10503D5616C7C
:1016A00041F001016164410705D5D90703D0616CA0
:1016B00041F002016164810705D5D90703D0616C4F
:1016C00041F004016164010707D502F020013143B4
:1016D00003D0616C41F008016164616C00293AD06B
:1016E000800604D5900602D5204600F019FE206839
:1016F0004069616CC0F38010090700D460B32046D4
:1017000000F0E7FD20684069400621D520681430CC
:1017100050E8001F21F0400140E80012002AF5D1F6
:10172000E06BA8B16D494163E06BFEF783FF0028D1
:1017300011D0E06B416B01B0BDE8F0400847830673
:101740000FD593060DD52046BDE8F84000F0E8BD62
:101750002046FFF78DFFF8BD2046FFF789FF65643F
:10176000F8BD266B2023012E7CD1C6067AD5D6067D
:1017700078D508684868009048694FF0020640062E
:1017800040D5E16B086840680004000CE8D0A28DE9
:101790008242E5D9E085886920282DD020680C3068
:1017A00050E8001F21F4807140E80012002AF5D1B2
:1017B0002068143050E8001F21F0010140E80012B9
:1017C000002AF5D12068143050E8001F21F04001B4
:1017D00040E80012002AF5D184F8423025632068E1
:1017E0000C3050E8001F21F0100140E80012002AE0
:1017F000F5D1E06BFEF7FBFE6663A08DE18D401A2C
:1018000081B22AE0A08DE18D401A81B2E08D0028DE
:10181000A6D00029A4D022680C3252E8000F20F490
:10182000907042E80007002FF5D12068143050E88E
:10183000002F22F0010240E80027002FF5D184F8A4
:101840004230256320680C3050E8002F22F010024F
:1018500040E80023002BF5D166632046FFF707FF21
:10186000F8BDFFE705062BD5150629D594F84100EC
:101870002128F5D1A068B0F5805F01D12069B0B111
:10188000206A411C2162216800784860E08C401E7B
:101890000004000CE084E3D12068C16821F08001DD
:1018A000C1602068C16841F04001C160D8E7206A8A
:1018B0000088C0F308004860206A801C2062E5E7C9
:1018C0004006CDD55006CBD5CA68204622F040024E
:1018D000CA6084F8413000F0E3F8C1E7C322000891
:1018E00070B5040004D094F84100002510B106E062
:1018F000012070BD84F84050204600F023F82420D9
:1019000084F841002068C16821F40051C16020467C
:1019100000F068FD2068016921F4904101612068B0
:10192000416921F02A0141612068C16841F40051F8
:10193000C1606564202084F8410084F8420065633A
:10194000002070BD30B585B000240094019402944D
:10195000039400681449884224D11448816941F4F1
:1019600080418161816901F480410491816941F084
:101970000401816180690E4D00F0040004904FF471
:1019800000700090022001900320039069462846D1
:10199000FEF7AEFE2815CDE90004694628460294FC
:1019A000FEF7A6FE05B030BD003801400010024031
:1019B0000008014090F84230202B01D002207047EF
:1019C00021B11AB10023036300F068BD0120704704
:1019D0000068084988420BD10748417A532901D150
:1019E000012101720449012209310448FFF7E2BFD5
:1019F000704700000038014000000020FC0000207B
:101A00002DE9F843044690F84100984616460D46E5
:101A1000202802D00220BDE8F88385B17EB10020E5
:101A20006064212084F84100FEF75CFFA6848146B3
:101A3000E684A0682027B0F5805F02D003E0012093
:101A4000E9E7206910B12E4600250EE000260CE0E3
:101A50008021204600F03DFDA8B9C6B116F8010B63
:101A600021684860E08C401EE084E08C4B464FF0DB
:101A70000002CDF800800028EAD14FF04001204656
:101A800000F027FD40B184F841700320C3E735F82A
:101A9000020BC0F30800E3E784F841700020BAE7C6
:101AA0007047FEE708B500200090401C00900A280F
:101AB000FBDB08BD70B51C4E05460024280601D589
:101AC000012200E0002280213046FEF706FFFFF7EA
:101AD000E9FF012240213046FEF7FFFEFFF7E2FF5B
:101AE000002240213046FEF7F8FEFFF7DBFF6806D4
:101AF000050E641C082CE1DB012280213046FEF734
:101B0000ECFEFFF7CFFF012240213046FEF7E5FE55
:101B1000FFF7C8FF002240213046FEF7DEFEBDE899
:101B20007040FFF7BFBF0000000C014010B50E4C25
:101B3000012280212046FEF7D0FE012240212046CE
:101B4000FEF7CBFEFFF7AEFF002280212046FEF716
:101B5000C4FEFFF7A7FF002240212046FEF7BDFE8E
:101B6000BDE81040FFF79EBF000C014010B50C4CC3
:101B7000002280212046FEF7B0FEFFF793FF0122EE
:101B800040212046FEF7A9FEFFF78CFF01228021AD
:101B90002046FEF7A2FEBDE81040FFF783BF00001D
:101BA000000C01402DE9FF470024DFF8B0800094CD
:101BB0000194029422461E2140460394FEF78DFEB6
:101BC000DFF89C900022C6214846FEF786FE1E20C4
:101BD00001250226CDE90005CDE9024669464046C9
:101BE000FEF786FDE0208DE8310069464046FEF7AD
:101BF0007FFD6802CDE9000603276946039740464A
:101C0000FEF776FDA802CDE900046946404602943D
:101C1000FEF76EFD2802CDE90006694603974046AF
:101C2000FEF766FDCDE90056694648460397FEF784
:101C30005FFD0620CDE90005CDE90246694648462C
:101C4000FEF756FDC020CDE90005CDE90247694603
:101C50004846FEF74DFDBDE8FF8700000008014043
:101C6000000C014010B596B000240F94109411940C
:101C7000129413941C2108A81494FEF7DCFB202175
:101C80006846FEF7D8FB1F481D4901604F21C0E997
:101C900001146321C0E9031444618461FFF7A0F9D2
:101CA0004FF480500F900FA91648FFF71BFA154804
:101CB000FFF7ADFB139413A912481494FFF75CF9D6
:101CC0006020CDE908040A940B940C940D94002232
:101CD00008A90C480E94FFF734FB00944FF4005011
:101CE000CDE90440029401940394694605480794A1
:101CF000FFF718F90348FFF7FDFA16B010BD000012
:101D0000002C01402400002010B586B000241148AA
:101D1000009401940294039404944FF0804105943C
:101D2000016041F63F71C0E901140921C0E90314C3
:101D30008461FFF755F94FF48050009069460548DB
:101D4000FFF7D0F9049404A902480594FFF714F9A9
:101D500006B010BD6C00002010B58EB000240794B2
:101D6000089409940A940B941C2168460C94FEF77D
:101D700062FB1548134901604F21C0E9011463213A
:101D8000C0E903148461FFF72BF94FF480500790EA
:101D900007A90D48FFF7A6F90B48FFF738FB0B948E
:101DA0000BA909480C94FFF7E7F86020CDE900047F
:101DB00002940822694604480494FFF7C2FA0EB060
:101DC00010BD000000040040B40000200E4810B513
:101DD0000C4901604FF416514160002181600C22D2
:101DE000C160C0E904128161C161FFF779FD002281
:101DF00011462520FEF7E2FDBDE810402520FEF744
:101E0000CFBD000000380140FC000020FEE7FEE7E7
:101E100070B5002404F1B000C0B200F0DFF800207B
:101E200000F0DCF8102000F0D9F80025002000F0C8
:101E3000E6F86D1CEDB2802DF8D3641CE4B2082CDA
:101E4000E8D370BD10B56420FEF740FCAE2000F072
:101E5000C5F8202000F0C2F8022000F0BFF80020F2
:101E600000F0BCF8102000F0B9F8402000F0B6F8FF
:101E7000B02000F0B3F8812000F0B0F8FF2000F0AF
:101E8000ADF8A12000F0AAF8A62000F0A7F8A8203D
:101E900000F0A4F83F2000F0A1F8C82000F09EF860
:101EA000D32000F09BF8002000F098F8DA2000F032
:101EB00095F8122000F092F88D2000F08FF8142091
:101EC00000F08CF8BDE81040AF2000F087B80000AB
:101ED00070B5203A04465F2A1AD2B031D5B2C8B2E2
:101EE00000F07CF8102040EA141000F077F804F0BD
:101EF0000F0000F073F8074905EB4500002401EBE3
:101F00004005285D00F07BF8641CE4B2062CF8D391
:101F100070BD0000542800082DE9F74F11074FEA63
:101F2000116A14260024102182B041EA101BDFF848
:101F3000888000F00F004FF00109009003982044C2
:101F4000B030C0B200F04AF8584600F047F80098A8
:101F500000F044F85FF000050AEB0500C7B207F097
:101F60000701C1F1070C00200246494609FA0CF3AB
:101F700002EBC40C0CFB06FC0CEBD70C0CF0FF0CBA
:101F800018F80CC01CEA030F05D001FA02FC4CEA59
:101F9000000C0CF0FF00521CD2B2082AE8D300F06B
:101FA0002EF86D1CEDB2102DD6D3641CE4B2022CB9
:101FB000C4D305B0BDE8F08F8E2A000870B5144672
:101FC0000E46054606E031462846FFF781FFAD1D67
:101FD000EDB2641C2278002AF5D170BD10B504461C
:101FE000FFF7A4FD7820FFF765FD0020FFF762FDF5
:101FF0002046FFF75FFDBDE81040FFF7B7BD10B505
:102000000446FFF793FD7820FFF754FD4020FFF7CB
:1020100051FD2046FFF74EFDBDE81040FFF7A6BD7D
:1020200070477047FEF764BC30B58FB02821684612
:10203000FEF701FA14210AA8FEF7FDF9012000902D
:1020400000040025022409950190CDE90740684667
:10205000FEF7C2FD0F20CDE90A0480200C90C000DD
:10206000CDE90D0500210AA8FEF7DAFC0FB030BD5E
:10207000704700000148FFF7A4B800006C00002082
:10208000F0B50268194B1A4C1A4D4FF08047984230
:1020900005D0B84203D0A04201D0A84203D122F01B
:1020A00070064A683243984205D0B84203D0A04235
:1020B00001D0A84203D122F44074CA6822434C697B
:1020C00022F08002224302608A68C2620A68826249
:1020D000984201D109690163012141610169C90780
:1020E00003D0016921F001010161F0BD002C014024
:1020F000000400400008004010B501F01F0301215A
:10210000046A99408C430462016A9A401143016257
:1021100010BD10B5846842EA032224F47F440A43C8
:102120002243826010BD826822F070020A4342F0AE
:10213000070181607047000030B5036A026A22F02F
:10214000010202624268846924F073050C682C4322
:1021500023F002058B682B430A4DA8420BD123F0D4
:102160000805CB6822F440722B434D6923F0040329
:1021700015438A692A434260846149684163036266
:1021800030BD0000002C014030B5026A036A23F024
:1021900010030362436884690D6824F4E64444EA4A
:1021A00005248D6822F0200242EA05120B4DA84258
:1021B0000ED1CD6822F0800242EA05124D6923F467
:1021C000406343EA85038D6922F0400243EA8503B8
:1021D0004360846149688163026230BD002C014024
:1021E00030B5036A026A22F4807202624268C469EE
:1021F00023F4007324F073050C682C438D6843EAC4
:1022000005230C4DA8420ED1CD6823F4006343EAA8
:1022100005234D6922F4405242EA05128D6923F4E8
:10222000806342EA05124260C4614968C163036287
:1022300030BD0000002C014030B5046A026A22F46F
:10224000805202624268C3690D6823F4E64343EAA0
:1022500005238D6824F4005444EA0534064DA84251
:1022600004D14D6922F4804242EA85124260C36182
:1022700049680164046230BD002C014010B5036A56
:10228000046A24F001040462846924F0F00444EA3E
:10229000021423F00A020A438461026210BD10B5E1
:1022A000036A046A24F010040462846923F0A00322
:1022B00024F4704444EA023243EA0111826101626B
:1022C00010BD10B5406A0021C185C184FFF7D0F967
:1022D00010BD01680C3151E8002F22F4907241E8E2
:1022E0000023002BF5D10168143151E8002F22F0B2
:1022F000010241E80023002BF5D1016B012909D12E
:1023000001680C3151E8002F22F0100241E800234F
:10231000002BF5D1202180F8421000210163704785
:1023200008B590F84210222901D0022008BD826829
:102330004FF480539A4201D1016921B1816A9A42D6
:102340001BD04AB10AE00268816A5268C2F30802EF
:102350000A80816A891C08E0026972B102685268C9
:1023600002F07F020A70816A491C8162C18D491E98
:102370000904090CC18503D01BE002685268F1E72B
:102380000168CA6822F02002CA600168CA6822F4A3
:102390008072CA6001684A6922F001024A61202104
:1023A00080F8421000214163026B012A03D0FFF73D
:1023B0000FFB002008BD016301680C3151E8002FBC
:1023C00022F0100241E80023002BF5D101680A68D1
:1023D000D20602D50A6849680091818DFFF747F956
:1023E000E7E7000070B5044600680169E26821F47F
:1023F0004051114301612169A068084361690843A4
:102400002168CA6841F20C639A430243CA6020689B
:102410004169A26921F44071114341611E4920685C
:10242000884202D1FEF7A2FB01E0FEF78FFB00EB32
:10243000C00101EB0012606864218000B2FBF0F380
:10244000B3FBF1F36FF018067343B2FBF0F5B2FB88
:10245000F0F605EB8305322303EB0515B5FBF1F52B
:10246000B6FBF1F605F0F00505EB0615B2FBF0F64C
:10247000B2FBF0F0B0FBF1F06FF01802504306EB46
:10248000800003EB0010B0FBF1F0216800F00F00BA
:102490002844886070BD0000003801408162828558
:1024A000C28500214164222180F84210016921B1D6
:1024B0000168CA6842F48072CA6001684A6942F0E1
:1024C00001024A610068C16841F02001C16000203A
:1024D00070472DE9F843984617460D460446089E76
:1024E00024E0701C22D0FEF7FDF9A0EB0800B042FA
:1024F0001AD8CEB12068C168490717D5802D15D0EC
:10250000402D13D00168C94309070FD40168002585
:10251000406800902046FFF7DCFE0820606484F8E5
:1025200040500120BDE8F8830320FBE720680068E5
:1025300035EA000004D00020B842D2D00020F1E7F4
:102540000120F9E70148FFF795B80000FC000020E2
:10255000FEE70907090E002804DB00F1E02080F8FF
:102560000014704700F00F0000F1E02080F8141D07
:10257000704730380A2801D2012070470020704788
:102580008AB0FEF7BDF9FFF74FFD9548816941F02C
:1025900001018161816901F001010891816941F0C6
:1025A00004018161816901F004010891816941F0B0
:1025B00008018161816901F008010891816941F494
:1025C00000618161816901F400610891C16941F094
:1025D0000101C161C16901F001010891C16941F0C6
:1025E0000201C161C16901F002010891816941F4F0
:1025F00080418161806900F480400890FFF7D2FA41
:10260000FFF782FBFFF72EFBFFF7A6FBFFF7DEFBD2
:10261000C820FEF75BF8FFF715FCFFF7F9FB714EDA
:10262000002206213046FEF758F96F49002009685C
:10263000C8636D484838FEF729FD6B480021903883
:10264000FEF714FF684890380068416C41F400417F
:10265000416408216448FEF709FF63480122634989
:102660004830FFF7A7F9604F604C00254837093C18
:1026700038680168090708D50168406808905A4819
:1026800001225A494830FFF795F9207A40B158A203
:1026900004210020FFF792FC3220FEF717F8E7E74D
:1026A000002157A20846FFF789FC4F48A27857A19E
:1026B000A430FDF78DFD4C4A0021A4324820FFF7DD
:1026C0007DFC002202211046FFF726FC0122022198
:1026D0001020FFF721FC022211462020FFF71CFCEE
:1026E0004DA202213020FFF769FC3F48E2784BA160
:1026F000A430FDF76DFD3C4A0221A4323820FFF7DB
:102700005DFC032204210020FFF706FC0422114691
:102710001020FFF701FC40A204212020FFF74EFC0F
:10272000E078002849D0207901284DD006220421E4
:102730002820FFF7F1FB072204213820FFF7ECFBEC
:1027400038A204214820FFF739FC21696420B1FB3D
:10275000F0F3B1FBF0F200FB1313234833A19030E8
:10276000FDF736FD204A062190320020FFF726FCB7
:10277000E07858B3207901282BD00022022130467E
:10278000FEF7ABF8012204213046FEF7A6F86D1CD7
:10279000EDB2052D80D3E378A27829A16846FDF734
:1027A00017FD6846FDF728FE82B20F48642369468C
:1027B0004830FFF725F900256EE70822042128207C
:1027C000FFF7AAFB0922B7E70522B0E7002206219E
:1027D000DAE7012202213046FEF77FF80022D2E735
:1027E00000100240000C0140B4000020090000204D
:1027F00053595354454D20504155534544200000F2
:102800004C69754775616E675A00000050574D312D
:102810003A256425252020003A000000256425255E
:1028200020200000202020200000000054696D6559
:102830003A2025642E2530326473202000000000E9
:1028400050574D313A25642C50574D323A25640D7E
:102850000A0000000000000000000000002F00003F
:1028600000000700070000147F147F1400242A7F53
:102870002A120023130864620036495522500000D2
:102880000503000000001C224100000041221C0042
:102890000014083E08140008083E08080000402004
:1028A0000000000808080808000060600000002020
:1028B00010080402003E5149453E0000427F40009E
:1028C000004261514946002141454B310018141224
:1028D0007F10002745454539003C4A4949300001F1
:1028E0007109050300364949493600064949291E40
:1028F00000003636000000005636000000000814C4
:10290000224100141414141400412214080000027F
:102910000151090600324979413E007E1111117EB4
:10292000007F49494936003E41414122007F4141F3
:10293000221C007F49494941007F09090101003EED
:1029400041415132007F0808087F0000417F41006B
:10295000002040413F01007F08142241007F404099
:102960004040007F0204027F007F0408107F003E89
:102970004141413E007F09090906003E4151215E67
:10298000007F091929460046494949310001017F64
:102990000101003F4040403F001F2040201F003FFA
:1029A0004038403F006314081463000304780403B4
:1029B00000615149454300007F4141000002040885
:1029C0001020000041417F00000402010204004089
:1029D000404040400000010204000020545454785C
:1029E000007F48444438003844444420003844447C
:1029F000487F00385454541800087E09010200082A
:102A00001454543C007F080404780000447D4000C6
:102A1000002040443D00007F102844000000417F1A
:102A20004000007C04180478007C08040478003816
:102A300044444438007C1414140800081414187C0E
:102A4000007C0804040800485454542000043F4407
:102A50004020003C4040207C001C2040201C003CCA
:102A60004030403C004428102844000C5050503C5A
:102A7000004464544C440000083641000000007FCC
:102A8000000000004136080000080408100801009A
:102A9000020000800840010000000010202010808B
:102AA0000100010001002080084801007FFC00F8BF
:102AB00020201040010001007FFE208008447FFCA0
:102AC00001003F00202017FC010001FE400220848D
:102AD0004844010001002000FDFC2000010001002D
:102AE000882420882840028001002000402023F80C
:102AF00011000100101020902FFE044001003FF84B
:102B0000504062081100010020083EA008400A2041
:102B10001100240893FE63F811F80100000020C0A2
:102B20000840311811F82410FC40A00011003FF8B3
:102B30001FF020801840C0061100221010802FFEC8
:102B4000110020080100208028A00100110022208F
:102B500011FC28021100200801002080C8A008886C
:102B6000110021401C0423F81100200801002082DC
:102B70000890488411002080F0882040110020082F
:102B80000100268209104812110041405050204097
:102B90001100200801003882090848121100422063
:102BA0001020204011003FF87FFC207E0A0487F0AF
:102BB000FFFE8C1810102140FFFE200800000000CE
:102BC0000C020000000030061010208000000102FE
:102BD00002030405060708090A0B0C0D0E0F10105E
:102BE00000000000000000000102030406070809BD
:102BF00000000000010203040400000800000000BF
:102C00000000000200010000100000002C2C000851
:102C1000000000202400000028010008502C0008BB
:102C200024000020AC070000440100080000000060
:102C30000100000000000000000000000000000093
:102C400001000000100000000000000000127A00E7
:04000005080000ED02
:00000001FF
