:020000040800F2
:10000000180C002089010008F719000827170008BC
:10001000F51900088F0200081D21000800000000EB
:10002000000000000000000000000000E71B0008C6
:100030009102000800000000E51B0008E91B000811
:10004000A3010008A3010008A3010008A301000800
:10005000A3010008A3010008A3010008A3010008F0
:10006000A3010008A3010008A3010008A3010008E0
:10007000A3010008A3010008A3010008A3010008D0
:10008000A3010008A3010008A3010008A3010008C0
:10009000A3010008A3010008A3010008A3010008B0
:1000A000A3010008A3010008A3010008A3010008A0
:1000B000411C0008A3010008A3010008A3010008D7
:1000C000A3010008A3010008A3010008A301000880
:1000D000A301000811210008A3010008A3010008E2
:1000E000A3010008A3010008A301000800F002F822
:1000F00000F03AF80AA090E8000C82448344AAF188
:100100000107DA4501D100F02FF8AFF2090EBAE885
:100110000F0013F0010F18BFFB1A43F0010318473B
:10012000E82F000008300000103A24BF78C878C1DA
:10013000FAD8520724BF30C830C144BF04680C60ED
:10014000704700000023002400250026103A28BF35
:1001500078C1FBD8520728BF30C148BF0B60704739
:100160001FB51FBD10B510BD00F058F81146FFF7C0
:10017000F7FF02F013F900F076F803B4FFF7F2FF8F
:1001800003BC00F07DF8000009488047094800479B
:10019000FEE7FEE7FEE7FEE7FEE7FEE7FEE7FEE737
:1001A000FEE7FEE704480549054A064B7047000094
:1001B0003D1C0008ED00000818060020180C002067
:1001C00018080020180800204FF0000200B5134660
:1001D00094469646203922BFA0E80C50A0E80C5067
:1001E000B1F12001BFF4F7AF090728BFA0E80C5018
:1001F00048BF0CC05DF804EB890028BF40F8042B11
:1002000008BF704748BF20F8022B11F0804F18BF7D
:1002100000F8012B7047704770477047754600F033
:100220002BF8AE4605006946534620F00700854688
:1002300018B020B5FFF7B6FFBDE820404FF000062C
:100240004FF000074FF000084FF0000B21F00701BE
:10025000AC46ACE8C009ACE8C009ACE8C009ACE801
:10026000C0098D46704710B50446AFF300802046A4
:10027000BDE81040FFF781BF00487047B805002077
:1002800001491820ABBEFEE7260002007047FEE7DA
:10029000704772B6FEE710B590F8211000220229CF
:1002A00005D00421816380F82020012010BD016861
:1002B0000B6823F00E030B6001680B6823F0010349
:1002C0000B6090F84030C46B012101FA03F36360C6
:1002D00080F8211080F82020104610BD10B590F84D
:1002E00021100024022903D00421816301243DE070
:1002F00001680A6822F00E020A6001680A6822F0AA
:1003000001020A601A4A0168914201D1012121E0EB
:10031000174A1432914201D110211BE0144A2832AD
:10032000914201D1891515E0114A3C32914201D127
:1003300089140FE00E4A5032914202D14FF48031BD
:1003400008E00B4A6432914202D14FF4801101E07F
:100350004FF08071064A083A5160012180F821105F
:10036000002180F82010416B01B18847204610BD64
:100370000800024070B5044600F008F90546601C0C
:1003800002D004480078044400F000F9401BA04269
:10039000FAD370BD3C0000202DE9F84FDFF8B8918A
:1003A0000024A9F1040B23460F2709F1040AABF13D
:1003B000040EC9E00125A5402A40AA427DD1674E1E
:1003C000D1F804C0ACEB0608B44532D014DCBCF163
:1003D000030F3AD009DCBCF1000F2AD0BCF1010FA9
:1003E0001CD0BCF1020F31D11DE0BCF1110F17D0B0
:1003F000BCF1120F2AD119E0B8F5881F19D006DC1C
:10040000B8F5803F15D0B8F5801F1FD111E0B8F5C1
:10041000001F0ED0B8F5041F18D10AE0CB6815E014
:10042000CB681B1D12E0CB6808330FE0CB680C33A0
:100430000CE08B682BB1012B4FF0080303D0456112
:1004400004E0042302E0056100E00023FF2A01D854
:10045000064601E000F104064FEA840501D9A5F142
:100460002005D6F8008007FA05FC28EA0C0803FAF4
:1004700005F548EA0508C6F800804D68ED0062D52C
:10048000374DAE6946F00106AE61AD6924F0030652
:1004900005F001050095334D06EB050CDCF808501E
:1004A000A607360F07FA06F825EA0805DFF8B88030
:1004B000404503D14FF0000817E044E0DFF8AC807E
:1004C000404502D14FF001080FE0DFF8A48040451D
:1004D00002D14FF0020808E0DFF89880404502D1D1
:1004E0004FF0030801E04FF0040808FA06F848EA64
:1004F0000508CCF808804D68D9F80060ED024D463B
:1005000001D5164300E096432E604D68DAF800608E
:10051000AD02554601D5164300E096432E604D6866
:10052000DBF80060AD035D4601D5164300E096435D
:100530002E604D68DEF80060ED03754601D5164368
:1005400000E096432E60641C0D682A46E5407FF467
:1005500031AFBDE8F88F0000080401400000111021
:10056000001002400000014000080140000C014062
:1005700000100140001401408068084000D00120B4
:1005800070470AB1016170470904FBE701488068C0
:10059000704700003C000020024881680278114446
:1005A000816070473C000020074810B5016841F0A9
:1005B00010010160032000F075F80F2000F006F82C
:1005C00000F024F8002010BD0020024070B50D4D51
:1005D00004464FF47A712878B1FBF0F00A490968B3
:1005E000B1FBF0F000F0DCFA48B9102C07D2002281
:1005F0002146501E00F036F800206C6070BD0120CE
:1006000070BD00003C000020480000200C4808B5E8
:10061000816941F001018161816901F0010100916D
:10062000C16941F08051C161C06900F08050009003
:100630000448416821F0E06141F00071416008BD6B
:100640000010024000000140002809DB00F01F02FA
:10065000012191404009800000F1E020C0F8001124
:1006600070470000F0B40E4B1B680C46C3F3022326
:10067000C3F10705042D00D90425191D072901D24E
:10068000002300E0DB1E012606FA05F1491E214089
:1006900099409E40761E16403143F0BC01F03FBDAC
:1006A0000CED00E0064900F0070208684FF6FF0372
:1006B000184040EA0220034A1043086070470000D7
:1006C0000CED00E00000FA052DE9F0470F460500AB
:1006D00061D0434E306800F00700B84209D230685C
:1006E00020F0070038433060306800F00700B8425F
:1006F00051D128683B4C810712D5400703D560686B
:1007000040F4E06060602878000703D5606840F43A
:10071000605060606068A96820F0F0000843606085
:100720002878C00728D06868012810D021680228DE
:1007300010D0890700292EDA616821F003010143F6
:100740006160FFF723FF804641F288390DE02168A0
:100750008903EFE78901EDE7FFF718FFA0EB080138
:10076000494502D90320BDE8F0876068696800F058
:100770000C00B0EB810FEFD1306800F00700B842F9
:100780000BD9306820F0070038433060306800F043
:100790000700B84201D00120E5E72878400705D5D9
:1007A0006068E96820F4E06008436060287800072A
:1007B00006D56068296920F4605040EAC100606095
:1007C00000F038F86168084AC1F30311515CC84071
:1007D0000649086006480068FFF7F8FE0020C2E7F7
:1007E0000020024000100240F030000848000020C5
:1007F000400000200448054900684968044AC1F3E4
:100800000221515CC840704748000020001002409F
:10081000003100080448054900684968044AC1F3EA
:10082000C221515CC84070474800002000100240BF
:10083000003100080E4A51680E4801F00C03042BE9
:1008400011D0082B0FD10C48C1F38343C903C05CFE
:100850000AD55168084AC1F34041921E515C054ACD
:100860005043B0FBF1F07047044948437047000023
:100870000010024000127A00E030000800093D003C
:100880002DE9F84F040070D02078C04DC00749D042
:100890006868C0F38100012807D06868C0F3810050
:1008A000022809D16868C00306D52868800339D5B5
:1008B00060680028E7D035E06068B0F5803F0BD075
:1008C00010B1B0F5A02F11D0286820F48030286036
:1008D000286820F4802002E0286840F480302860F6
:1008E000606890B1FFF752FE06460AE0286840F4BF
:1008F00080202860F0E700BFFFF748FE801B6428D7
:1009000073D828688003F7D50CE0FFF73FFE064652
:1009100005E000BFFFF73AFE801B6428F0D8286886
:100920008003F7D420789A4E80074FF001094FF0EA
:10093000000839D5686810F00C0F07D06868C0F35C
:100940008100022809D16868C00306D4286880079E
:1009500014D52069012808D110E02069B0B1C6F88B
:100960000090FFF713FE074605E00AE1FFF70EFED1
:10097000C01B0228C4D828688007F7D52868616999
:1009800020F0F80040EAC10028600DE0C6F80080C1
:10099000FFF7FCFD074604E0FFF7F8FDC01B022847
:1009A00023D828688007F7D4207800072CD5794809
:1009B000A169D9B1C0F80090FFF7E8FD074604E04F
:1009C000FFF7E4FDC01B02280FD8686A8007F7D53F
:1009D00071484FF4FA510068B0FBF1F0009000BF8D
:1009E0000098411E0091FAD20EE080E0C0F800802D
:1009F000FFF7CCFD074604E0FFF7C8FDC01B022847
:100A000075D8686A8007F7D42078400760D5E86910
:100A10000027C00008D4E86940F08050E861E86928
:100A2000012700F0805000905C480168C90513D48C
:100A30000168834641F480710160FFF7A7FD82469B
:100A400006E000BFFFF7A2FDA0EB0A0064284ED825
:100A5000DBF80000C005F5D5E06801280AD008B130
:100A6000052813D0286A20F001002862286A20F0A7
:100A7000040002E0286A40F001002862E06841F2C8
:100A8000883B98B1FFF782FD82460BE0286A40F070
:100A900004002862EEE700BFFFF778FDA0EB0A0133
:100AA00059455AD8286A8007F6D50CE0FFF76EFD45
:100AB000824605E0FFF76AFDA0EB0A0159454CD8D4
:100AC000286A8007F6D41FB1E86920F08050E861F9
:100AD000E06988B36968C1F38101022944D0022822
:100AE000C6F8608004D0FFF751FD044638E034E0DA
:100AF000FFF74CFD074604E0FFF748FDC01B022846
:100B00002BD828688001F7D4206AB0F5803F05D142
:100B10006868A16820F4003008436860D4E90801DF
:100B20000843696821F4741108436860C6F860904E
:100B3000FFF72CFD044606E025E000BFFFF726FD89
:100B4000001B022809D828688001F7D51BE000BFE8
:100B5000FFF71CFD001B022802D90320BDE8F88F17
:100B600028688001F4D40EE00128F7D06868226A72
:100B700000F48031914204D1616A00F4701088421F
:100B800001D00120EAE70020E8E700000010024061
:100B900000004242800442424800002000700040B1
:100BA00010B5401EB0F1807F01D3012010BD4FF081
:100BB000E02460610F21601701F0B1FA0020A0610C
:100BC00007202061002010BD7047704710B590F8D5
:100BD0003C20012A22D0012280F83C20CA688C687F
:100BE00022F4407222434C6822F4806222430C6853
:100BF00022F4006222430C6922F4805222434C69A1
:100C000022F400522243C969002322F480420A439D
:100C100001684A6480F83C30002010BD022010BDFD
:100C200070B590F83C20012A26D0012480F83C4081
:100C3000022280F83D2003685A689D6822F0700601
:100C40000A6832435A600D4B02689A4208D0B2F1EA
:100C5000804F05D00A4B9A4202D00A4B9A4204D1E7
:100C6000496825F080031943916080F83D400021D8
:100C700080F83C10084670BD022070BD002C014079
:100C8000000400400008004010B5040003D094F8B0
:100C90003D0010B107E0012010BD002084F83C00A9
:100CA000204600F01FF8022084F83D00211D206836
:100CB00000F0CCFF012084F8460084F83E0084F860
:100CC0003F0084F8400084F8410084F8420084F832
:100CD000430084F8440084F8450084F83D00002077
:100CE00010BD000008B5174A01681748914207D1A6
:100CF000816941F400618161806900F400600CE069
:100D0000B1F1804F0BD0114A914207D1C16941F036
:100D10000201C161C06900F00200009008BDC16914
:100D200041F00101C161C069002200F001000090A2
:100D300001211C20FFF796FCBDE808401C20FFF7AE
:100D400083BC0000002C0140001002400004004061
:100D500090F83D10012901D001207047022180F850
:100D60003D100168CA6842F00102CA6000680B4980
:100D7000884208D0B0F1804F05D00949884202D09E
:100D80000849884204D1816801F00701062903D08F
:100D9000016841F00101016000207047002C014012
:100DA000000400400008004070B5044690F83C0084
:100DB0000025012817D0012684F83C60022084F821
:100DC0003D002068826822F0770222F47F42826030
:100DD0000868502838D00DDC20284FD005DC90B3AF
:100DE000102811D14AE0022070BD302846D040289A
:100DF0000AD13BE060282FD070280DD0B0F5805F7D
:100E000003D0B0F5005F12D0012584F83D600020CA
:100E100084F83C00284670BDCB68D1E901212068E8
:100E200000F05DFF2068816841F0770109E0CB6840
:100E3000D1E90121206800F052FF2068816841F467
:100E400080418160E1E719E0CA684968206800F0E4
:100E5000FBFF5021206806E0CA684968206801F05D
:100E600004F86021206800F044FFCEE7CA684968B2
:100E7000206800F0E9FF40212068F4E7226801467D
:100E80001046F0E770472DE9F04104460068C66857
:100E900005694FF00007A90713D5B10711D5F91E51
:100EA000016101202077206880698007204602D0F8
:100EB000FFF7E8FF04E000F0BBF8204600F04DF932
:100EC0002777680716D5700714D521686FF00400DE
:100ED0000861022020772068806910F4407F204656
:100EE00002D0FFF7CFFF04E000F0A2F8204600F0A8
:100EF00034F92777280715D5300713D521686FF007
:100F000008000861042020772068C0698007204617
:100F100002D0FFF7B7FF04E000F08AF8204600F0A7
:100F20001CF92777E80616D5F00614D521686FF06E
:100F300010000861082020772068C06910F4407F05
:100F4000204602D0FFF79EFF04E000F071F8204633
:100F500000F003F92777E80708D0F00706D02168EA
:100F60006FF001000861204600F046F9280608D518
:100F7000300606D521686FF0800008612046FFF733
:100F800023FE680608D5700606D521686FF040007C
:100F90000861204600F098F9A8060AD5B00608D5E1
:100FA00021686FF0200008612046BDE8F041FFF79E
:100FB0000CBEBDE8F081000000B585B000210091B5
:100FC000019102910391154B0268154802219A4242
:100FD0000ED1826942F0040282618069039100F0BF
:100FE00004000490C801CDE9000169460D4810E0F5
:100FF0000D4B9A420FD1826942F0080282618069EA
:10100000039100F0080004900120CDE90001694639
:101010000648FFF7C1F905B000BD0000002C0140F3
:10102000001002400008014000040040000C014094
:10103000704770B5044690F83C0000260D46012824
:101040000FD0012084F83C006AB1042A1DD0082A80
:101050002FD00C2A3FD00126002084F83C003046D7
:1010600070BD022070BD206800F04CFE20688169D0
:1010700041F0080181612068816921F004018161EA
:10108000206881692A69114311E0206800F062FE3E
:101090002068816941F4006181612068816921F4DF
:1010A00080618161206881692A6941EA0221816148
:1010B000D2E7206800F07AFE2068C16941F008019B
:1010C000C1612068C16921F00401C1612068C16962
:1010D0002A69114311E0206800F094FE2068C1697C
:1010E00041F40061C1612068C16921F48061C1617E
:1010F0002068C1692A6941EA0221C161ACE710B5E3
:10110000040003D094F83D0010B107E0012010BDA9
:10111000002084F83C00204600F01EF8022084F8ED
:101120003D00211D206800F091FD012084F846005B
:1011300084F83E0084F83F0084F8400084F84100C1
:1011400084F8420084F8430084F8440084F84500A1
:1011500084F83D00002010BD7047704710B504466C
:10116000022249B104290ED0082913D094F8410075
:10117000012816D0012010BD94F83E000128F9D1B5
:1011800084F83E200FE094F83F000128F2D184F863
:101190003F2008E094F840000128EBD184F840207B
:1011A00001E084F841200122206800F08BFD0F4906
:1011B0002068884203D1426C42F4004242642068B5
:1011C000884208D0B0F1804F05D00949884202D04A
:1011D0000849884204D1816801F00701062903D03B
:1011E000016841F001010160002010BD002C0140A8
:1011F00000040040000800402DE9F0410068B0F113
:10120000804F2BD101F090F82C4C207800254FF422
:101210007A770226E8B9A0690A30A061608A0A30AC
:1012200080B26082B84214D365826078DFF8908023
:10123000401C00F00300607000221E214046FFF7B2
:10124000A0F96078012206FA00F081B24046FFF76B
:1012500098F920781B4918B108684563BDE8F0810A
:10126000A078012802D0022811D023E0A08A4FF4F0
:101270007A720A3080B200FB02F39200B3FBF2F301
:10128000A082E382904215D3E782A67011E0A08A83
:101290004FF47A720A3080B200FB02F35200B3FBC3
:1012A000F2F3A082C3F57A73E382904202D3E5821F
:1012B000A570A5820968E08A4863CFE70000002096
:1012C00000080140980400207047704770470000F4
:1012D000F8B5016804460868CA684B6910F00F0F3A
:1012E0004FF0000559D003F0010602F49077374320
:1012F00065D0C10705D0D10503D5616C41F001016E
:101300006164410705D5D90703D0616C41F0020142
:101310006164810705D5D90703D0616C41F00401F0
:101320006164010707D502F02001314303D0616CED
:1013300041F008016164616C00293AD0800604D54F
:10134000900602D5204600F0D1FD20684069616C0E
:10135000C0F38010090700D460B3204600F09FFD61
:1013600020684069400621D52068143050E8001FED
:1013700021F0400140E80012002AF5D1E06BA8B14D
:101380006D494163E06BFEF7A9FF002811D0E06BC7
:10139000416B01B0BDE8F040084783060FD59306C6
:1013A0000DD52046BDE8F84000F0A0BD2046FFF76F
:1013B0008DFFF8BD2046FFF789FF6564F8BD266BF9
:1013C0002023012E7CD1C6067AD5D60678D50868AA
:1013D0004868009048694FF00206400640D5E16B2E
:1013E000086840680004000CE8D0A28D8242E5D96C
:1013F000E085886920282DD020680C3050E8001F37
:1014000021F4807140E80012002AF5D120681430E0
:1014100050E8001F21F0010140E80012002AF5D138
:101420002068143050E8001F21F0400140E800120D
:10143000002AF5D184F84230256320680C3050E84A
:10144000001F21F0100140E80012002AF5D1E06BE6
:10145000FEF721FF6663A08DE18D401A81B22AE07C
:10146000A08DE18D401A81B2E08D0028A6D0002920
:10147000A4D022680C3252E8000F20F4907042E8A9
:101480000007002FF5D12068143050E8002F22F01B
:10149000010240E80027002FF5D184F8423025638F
:1014A00020680C3050E8002F22F0100240E80023A2
:1014B000002BF5D166632046FFF707FFF8BDFFE775
:1014C00005062BD5150629D594F841002128F5D11C
:1014D000A068B0F5805F01D12069B0B1206A411CDD
:1014E0002162216800784860E08C401E0004000CF6
:1014F000E084E3D12068C16821F08001C1602068E8
:10150000C16841F04001C160D8E7206A0088C0F39B
:1015100008004860206A801C2062E5E74006CDD5BF
:101520005006CBD5CA68204622F04002CA6084F833
:10153000413000F0F7F8C1E78F1E000870B50400D5
:1015400004D094F84100002510B106E0012070BDE0
:1015500084F84050204600F023F8242084F841000D
:101560002068C16821F40051C160204600F020FDD0
:101570002068016921F4904101612068416921F0EE
:101580002A0141612068C16841F40051C16065646D
:10159000202084F8410084F842006563002070BD7B
:1015A00030B585B00024009401940294039400683F
:1015B000184988422CD11848816941F480418161E1
:1015C000816901F480410491816941F004018161E4
:1015D0008069124D00F0040004904FF400700090F8
:1015E000022001900320039069462846FEF7D4FEAE
:1015F0002815CDE90004694628460294FEF7CCFE82
:10160000002202212520FFF72DF82520FFF71CF8E6
:1016100005B030BD00380140001002400008014014
:1016200090F84230202B01D00220704721B11AB12E
:101630000023036300F018BD0120704730B4006838
:101640000C49884213D10C488179C279491C01F0B8
:101650003F01914204D0027C084B84791A55817174
:101660000549012230BC10310548FFF7D9BF30BC15
:10167000704700000038014000000020580400209E
:10168000700500202DE9F843044690F84100984683
:1016900016460D46202802D00220BDE8F88385B109
:1016A0007EB100206064212084F84100FEF76EFFC7
:1016B000A6848146E684A0682027B0F5805F02D02A
:1016C00003E00120E9E7206910B12E4600250EE075
:1016D00000260CE08021204600F0E1FCA8B9C6B14C
:1016E00016F8010B21684860E08C401EE084E08C15
:1016F0004B464FF00002CDF800800028EAD14FF0B1
:101700004001204600F0CBFC40B184F8417003203A
:10171000C3E735F8020BC0F30800E3E784F8417033
:101720000020BAE77047FEE72DE9F04186B00024BB
:101730002B480094019402940394816941F02001A4
:101740008161816901F020010491816941F0040106
:101750008161816901F004010491816941F008010E
:10176000816180691F4F00F00800049000221E2153
:101770003846FEF706FFDFF870800022062140465B
:10178000FEF7FFFE0122C0214046FEF7FAFE1E20B2
:1017900001250226CDE90005CDE902466946384615
:1017A000FEF7FAFDE0208DE8310069463846FEF785
:1017B000F3FD0620CDE90005CDE902466946404625
:1017C000FEF7EAFDC02000901120CDE901050320BD
:1017D000039069464046FEF7DFFD06B0BDE8F081A4
:1017E0000010024000080140000C014010B596B006
:1017F00000240F9410941194129413941C2108A89F
:101800001494FEF7E1FC20216846FEF7DDFC294830
:10181000274901600721C0E9011440F2E731C0E91E
:1018200003148021C0E90541FFF72EFA08B1FEF745
:1018300030FD4FF480500F900FA91E48FFF7B4FA07
:1018400008B1FEF726FD1B48FFF759FC08B1FEF76B
:1018500020FD139413A917481494FFF7E1F908B178
:10186000FEF717FD6020CDE908040A940B940C9450
:101870000D94002208A90F480E94FFF7DAFB08B177
:10188000FEF707FD00944FF40050CDE904400294A8
:1018900001940394694607480794FFF797F908B144
:1018A000FEF7F7FC0348FFF787FB16B010BD0000FA
:1018B000002C01409804002010B586B00024174881
:1018C000009401940294039404944FF08041059491
:1018D000016041F63F71C0E901140921C0E9031418
:1018E00080218161FFF7D0F908B1FEF7D2FC4FF4F7
:1018F0008050009069460948FFF756FA08B1FEF794
:10190000C8FC049404A905480594FFF789F9002848
:1019100001D0FEF7BEFC06B010BD0000E0040020C0
:1019200010B58EB000240794089409940A940B947F
:101930001C2168460C94FEF747FC1F481D490160B6
:101940000721C0E9011440F2E731C0E90314802106
:101950008161FFF799F908B1FEF79BFC4FF48050C5
:10196000079007A91448FFF71FFA08B1FEF791FC8A
:101970001148FFF7C4FB08B1FEF78BFC0B940BA9D1
:101980000D480C94FFF74CF908B1FEF782FC60207B
:10199000CDE9000402940822694607480494FFF741
:1019A00048FB08B1FEF775FC0348FFF705FB0EB0D6
:1019B00010BD000000040040280500200C4810B5B0
:1019C0000A4901604FF4E1314160002181600C223D
:1019D000C160C0E904128161C161FFF7AFFD002859
:1019E00003D0BDE81040FEF754BC10BD00380140E4
:1019F00070050020FEE7FEE710B50021074C0A46FF
:101A0000002004EBC1131A54401CC0B28028FAD342
:101A1000491CC9B20829F3D310BD00004C000020B6
:101A200010B56420FEF7A6FCAE2000F04DFED520D8
:101A300000F04AFE802000F047FEA82000F044FE9F
:101A40003F2000F041FED32000F03EFE002000F0D9
:101A50003BFE402000F038FE8D2000F035FE1420C3
:101A600000F032FE202000F02FFE022000F02CFEBD
:101A7000A12000F029FEC82000F026FEDA2000F0A8
:101A800023FE122000F020FE812000F01DFECF205A
:101A900000F01AFED92000F017FEF12000F014FE2D
:101AA000DB2000F011FE402000F00EFEA42000F02C
:101AB0000BFEA62000F008FEFFF79EFF00F064F882
:101AC000BDE81040AF2000F0FFBD70B514460E46D3
:101AD000054606E03146284600F03AF80835EDB2F2
:101AE000641C2278002AF5D170BDFEB50A230024BB
:101AF0008DF80A406D461C46B2FBF4F604FB162630
:101B0000B2FBF4F25B1EDBB23036EE540AB1002BAE
:101B1000F2D1EA18FFF7D9FFFEBD38B56423B2FB56
:101B2000F3F403FB14220A23B2FBF3F430348DF8F0
:101B30000040B2FBF3F403FB142230328DF8012095
:101B400000228DF802206A46FFF7BFFF38BD000073
:101B50000346A2F120005F2808D2054800EB0210DE
:101B60000A461946A0F5007000F034BB704700002B
:101B700028280008162804D2024B03EB401000F07E
:101B8000DFBA7047182E00082DE9F041DFF85080C9
:101B9000002400BF44F0B00000F096FD002000F0EB
:101BA00093FD102000F090FD08EBC417802600F094
:101BB00065FB782000F088FB402000F085FB0025C5
:101BC000785D00F081FB6D1CEDB2B542F8D300F0FA
:101BD00067FB641CE4B2082CDCD3BDE8F081000094
:101BE0004C00002070477047FEF7D6BC10B590B08F
:101BF00028216846FEF7E8FA14210AA8FEF7E4FA5D
:101C000002200090012004901020002405900794E9
:101C10006846FEF735FE08B172B6FEE70F20CDE943
:101C20000A040C940D9400210AA80E94FEF74CFDB2
:101C3000002801D072B6FEE710B010BD704700005A
:101C40000148FFF720B90000E0040020F0B5026869
:101C5000194B1A4C1A4D4FF08047984205D0B842A4
:101C600003D0A04201D0A84203D122F070064A68F6
:101C70003243984205D0B84203D0A04201D0A842D6
:101C800003D122F44074CA6822434C6922F08002D6
:101C9000224302608A68C2620A688262984201D165
:101CA00009690163012141610169C90703D0016923
:101CB00021F001010161F0BD002C01400004004051
:101CC0000008004010B501F01F030121046A99408B
:101CD0008C430462016A9A401143016210BD10B541
:101CE000846842EA032224F47F440A432243826048
:101CF00010BD826822F070020A4342F00701816041
:101D00007047000030B5036A026A22F001020262E5
:101D10004268846924F073050C682C4323F00205A3
:101D20008B682B430A4DA8420BD123F00805CB68E2
:101D300022F440722B434D6923F0040315438A6952
:101D40002A434260846149684163036230BD0000F8
:101D5000002C014030B5026A036A23F010030362CD
:101D6000436884690D6824F4E64444EA05248D68D8
:101D700022F0200242EA05120B4DA8420ED1CD6896
:101D800022F0800242EA05124D6923F4406343EADF
:101D900085038D6922F0400243EA85034360846134
:101DA00049688163026230BD002C014030B5036A8E
:101DB000026A22F4807202624268C46923F40073EA
:101DC00024F073050C682C438D6843EA05230C4D01
:101DD000A8420ED1CD6823F4006343EA05234D6980
:101DE00022F4405242EA05128D6923F4806342EAEC
:101DF00005124260C4614968C163036230BD0000DE
:101E0000002C014030B5046A026A22F4805202625A
:101E10004268C3690D6823F4E64343EA05238D68ED
:101E200024F4005444EA0534064DA84204D14D6917
:101E300022F4804242EA85124260C361496801642B
:101E4000046230BD002C014010B5036A046A24F01E
:101E500001040462846924F0F00444EA021423F0CB
:101E60000A020A438461026210BD10B5036A046A63
:101E700024F010040462846923F0A00324F4704465
:101E800044EA023243EA01118261016210BD10B5D9
:101E9000406A0021C185C184FFF718FA10BD0168AE
:101EA0000C3151E8002F22F4907241E80023002BFE
:101EB000F5D10168143151E8002F22F0010241E808
:101EC0000023002BF5D1016B012909D101680C31E8
:101ED00051E8002F22F0100241E80023002BF5D139
:101EE000202180F8421000210163704708B590F866
:101EF0004210222901D0022008BD82684FF480538D
:101F00009A4201D1016921B1816A9A421BD04AB13A
:101F10000AE00268816A5268C2F308020A80816A94
:101F2000891C08E0026972B10268526802F07F02FF
:101F30000A70816A491C8162C18D491E0904090C1D
:101F4000C18503D01BE002685268F1E70168CA68E6
:101F500022F02002CA600168CA6822F48072CA6056
:101F600001684A6922F001024A61202180F842108A
:101F700000214163026B012A03D0FFF75FFB0020C1
:101F800008BD016301680C3151E8002F22F01002F6
:101F900041E80023002BF5D101680A68D20602D57A
:101FA0000A6849680091818DFFF78FF9E7E7000023
:101FB00070B5044600680169E26821F4405111439C
:101FC00001612169A0680843616908432168CA6802
:101FD00041F20C639A430243CA6020684169A269D6
:101FE00021F44071114341611E492068884202D1A9
:101FF000FEF710FC01E0FEF7FDFB00EBC00101EB7A
:102000000012606864218000B2FBF0F3B3FBF1F3CF
:102010006FF018067343B2FBF0F5B2FBF0F605EB78
:102020008305322303EB0515B5FBF1F5B6FBF1F69D
:1020300005F0F00505EB0615B2FBF0F6B2FBF0F08B
:10204000B0FBF1F06FF01802504306EB800003EB99
:102050000010B0FBF1F0216800F00F002844886008
:1020600070BD00000038014081628285C285002178
:102070004164222180F84210016921B10168CA68D7
:1020800042F48072CA6001684A6942F001024A6102
:102090000068C16841F02001C160002070472DE94F
:1020A000F843984617460D460446089E24E0701CE7
:1020B00022D0FEF76BFAA0EB0800B0421AD8CEB1DE
:1020C0002068C168490717D5802D15D0402D13D041
:1020D0000168C94309070FD40168002540680090D2
:1020E0002046FFF7DCFE0820606484F840500120A1
:1020F000BDE8F8830320FBE72068006835EA0000AC
:1021000004D00020B842D2D00020F1E70120F9E746
:102110000148FFF7DDB8000070050020FEE7090761
:10212000090E002804DB00F1E02080F8001470475D
:1021300000F00F0000F1E02080F8141D704700004F
:10214000F0B5002635463446012704F0070C00237D
:10215000CCF1070C4FEA430E0EEBD40E10F80EE054
:102160002EFA0CFE5FEACE7E05D007FA03FE0EF0D3
:10217000FF0E4EEA060603F1080E4FEA0E6E4FEA16
:10218000DE5E0EEBD40E10F80EE02EFA0CFE5FEAC7
:10219000CE7E05D007FA03FE0EF0FF0E4EEA0505CF
:1021A0005B1CDBB2082BD5D3DFF824C00B190CEB7A
:1021B000C21E641C0EF80360561CF6B20CEBC61669
:1021C000E4B2F55400263546102CBED3F0BD000015
:1021D0004C000020F0B5002635463446012704F0B7
:1021E000070C0023CCF1070C03EBD40E10F80EE023
:1021F0002EFA0CFE5FEACE7E05D007FA03FE0EF043
:10220000FF0E4EEA060603F1080E0EF0FF0E0EEB6F
:10221000D40E10F80EE02EFA0CFE5FEACE7E05D04A
:1022200007FA03FE0EF0FF0E4EEA05055B1CDBB25B
:10223000082BD9D3DFF824C00B190CEBC21E641C89
:102240000EF80360561CF6B20CEBC616E4B2F55459
:1022500000263546082CC2D3F0BD00004C000020FB
:1022600008B502208DF800009DF80000002803D07A
:102270009DF80000401EF5E708BD000070B5074856
:102280008025056040240460FFF7EAFF034E361DF9
:102290003560FFF7E5FF346070BD0000100C0140B1
:1022A00070B5084880240460FFF7DAFF054D402030
:1022B0002D1F2860FFF7D4FF2C60BDE87040FFF7AA
:1022C000CFBF0000140C01402DE9F047154E00254A
:1022D00007464FF0800906F10408402438064846B6
:1022E00001D5306001E0C8F800007806070EFFF75E
:1022F000B7FF3460FFF7B4FFC8F800406D1CEDB2C3
:10230000082DEBD3C6F80090FFF7AAFF3460FFF763
:10231000A7FF044808380068C8F80040C0F3C010A0
:10232000BDE8F087100C01402DE9F0410024184F62
:10233000DFF86080184D012637F814104046FEF78C
:102340001BF9C0B15FF0000015F82410814214D1D0
:1023500005EB84014A78FF2A06D2022A04D2521CD5
:10236000D2B24A70022A0DD38A7882420AD088708B
:1023700040B1CE7006E00120E6E705F8240005EB49
:1023800084004670641CE4B2032CD5D3BDE8F08110
:10239000D8300008000801404C040020FEF704F982
:1023A000FFF724FCFFF7C0F9FFF786FAFFF71EFAE4
:1023B000FFF7B6FAFFF702FB00F086F8FFF730FBF5
:1023C000002211460820FFF7D5FB002210211046FD
:1023D000FFF7D0FB00F0B0F8012235493548FFF790
:1023E0001FF908B172B6FEE73348FEF7B1FC08B139
:1023F00072B6FEE700213148FEF7B0FE08B172B6B2
:10240000FEE708212E48FEF7A9FE294C2D4D4FF07E
:102410000008103C08B172B6FEE7FEF7B7F8294F86
:1024200006460C3707E0395C401C00F03F00E071C5
:10243000084600F05BF9E079A1798842F3D1E878A9
:1024400040B185F80380A2784146204612B90122A6
:102450008270A182E87970B185F8078020784146C2
:1024600048B9E0781430C0B2642801D3E17000E0CC
:10247000E07000F029F8E87A50B185F80B802178F7
:10248000204629B9417981F00101617100F01CF801
:10249000E06A2746301A642802D3FE6200F04CF846
:1024A000386B301A6428B8D33E6300F06DF9B4E796
:1024B0001000002070050020E00400209804002097
:1024C000280500204C040020114910B5114BCA7892
:1024D0001B6802EB82004000D8630F486AB149795B
:1024E00071B1002202210446FEF74BF801220421BB
:1024F0002046BDE81040FEF744B800220621F8E768
:10250000012202210446FEF73CF80022EFE700001A
:102510000000002028050020000C01400548C1787B
:1025200019B1407918B1022070470020704701208E
:10253000704700000000002070B55B4CA0690A21C4
:10254000B0FBF1F5207A2178884204D020782072FF
:10255000FF206072A072617AE07881422FD06072B1
:10256000022200210320FFF705FB02221021112087
:10257000FFF700FB022220210E20FFF7FBFA4BA2FF
:1025800002213020FFF7A1FA49A202213820FFF7EB
:102590009CFAE27802213820FFF7A7FAE078632856
:1025A00001D9032004E0092801D9022000E001201C
:1025B000382101EBC0003FA20221FFF786FAFFF7A6
:1025C000ADFFA17A884225D0FFF7A8FFA0720422B0
:1025D00000210F20FFF7CEFA042210210920FFF777
:1025E000C9FA32A204212020FFF76FFAE078002810
:1025F0004FD060794FF0040200284FF0300151D0E5
:102600005FF00400FFF7B6FA042240215FF01200E9
:10261000FFF7B0FAE069A84237D0062200210A206D
:10262000E561FFF7A7FA062210211520FFF7A2FAAD
:102630001EA206212020FFF748FA1FA2062128200B
:10264000FFF743FA6424B5FBF4F206212820FFF7D4
:102650004CFAB5FBF4F000F0DBF8282101EBC000E8
:10266000C0B218A20621FFF730FAB5FBF4F004FB64
:102670001056B5FBF4F000F0CBF8302101EBC000B0
:10268000C0B232460621FFF748FABDE87040FFF7B6
:102690007BBA042230210220FFF76CFA0422402189
:1026A0000C20B5E70D20ADE7000000203A00000047
:1026B0002020200025000000202020202020202095
:1026C000000000002E00000010B50446FFF7D6FD04
:1026D0007820FFF7F9FD0020FFF7F6FD2046FFF711
:1026E000F3FDBDE81040FFF7DBBD0000F0B4254965
:1026F00001250A46CF7AD67B002386EA000201F143
:102700003404062F19D2DFE807F003080E141C2A40
:10271000AA2800D1CD72F0BC7047552801D1022003
:102720001BE0002019E00873C8730228F9D10320C8
:1027300013E04873CA73012801D0CB72EBE78B73A7
:102740000AE08B7BE0545B1CD8B28873CA734A7B67
:10275000904201D3052000E00420C872DBE7CB7271
:10276000B042D8D12078012807D00028D3D10B70EF
:102770000879C870F0BCFFF7A7BE0D70C878087163
:10278000CB70F7E7000000203EB51F4CAA22E1788D
:10279000E08A8DF8002055228DF8012001228DF865
:1027A000022005228DF80320020A01EB81018DF839
:1027B000042049008DF80500080A8DF806008DF800
:1027C0000710207800B101208DF808000421084688
:1027D0006A46135C401C5940C0B20828F9D98DF8EC
:1027E0000910A06A401CA06214230A226946074807
:1027F000FEF748FF18B1606A401C60623EBD206A67
:10280000401C20623EBD000000000020700500203A
:1028100001210A2204E000BFB0FBF2F0491CC9B25A
:102820000A28F9D2084670470000000000000000A6
:1028300000000000000000001818181818181800F0
:1028400018180000000000003434240000000000CC
:1028500000000000000000003636367F2424FF24EC
:10286000242C000000000000083E684868381E164E
:1028700012167C101000000062D6D46818103E2A90
:102880004ACE000000000000386C6C683072DECE6A
:102890004E7A000000000000181818000000000028
:1028A0000000000000000000040C18101030303050
:1028B000301010180C040000203018080C0C040410
:1028C0000C0C081830200000086A3C3C6A08000024
:1028D00000000000000000001818187F18181800E9
:1028E0000000000000000000181808183000000068
:1028F00000000000000000003C000000000000009C
:1029000000000000000000000000000000000000C7
:1029100000000000181800000206040C081810102F
:1029200030206040000000003C6642474F53634245
:10293000663C000000000000183848080808080835
:10294000087E0000000000003C660606060C1830F9
:10295000607E0000000000007C0606043C060202C7
:10296000067C0000000000000C1C14342464C4FF2A
:1029700004040000000000007E6060607C0602022B
:1029800006780000000000001E3060407C66436254
:10299000663C0000000000007E0206040C081818C7
:1029A00030300000000000003C6662663C26624257
:1029B000663C0000000000003C664242663A0206A7
:1029C0000C78000000000000181800000018180023
:1029D000000000000000000018180000001818088F
:1029E0001830000000000000040C186060180C048F
:1029F00000000000000000007E007E0000000000DB
:102A0000000000000000000020300C06060C302002
:102A10000000000000000000380C0606061C100034
:102A200010100000000000001C264243DFBDAFABC9
:102A3000AABEC0443800000018382C2464667EC248
:102A4000C3000000000000007C6662667C66626273
:102A5000667C0000000000001E3260404040406084
:102A6000721E0000000000007C4642434343434284
:102A7000467C0000000000007E6060607E60606058
:102A8000607E0000000000007E606060607E60602C
:102A900060600000000000001E326040C0CF434371
:102AA000633E000000000000434343437F43434331
:102AB00043430000000000007E181818181818186A
:102AC000187E0000000000007E06060606060604CA
:102AD0004C3800000000000062646C787070786C04
:102AE000666200000000000020202020202020201E
:102AF000203E000000000000636767775BDBDBC3FC
:102B0000C3C300000000000062627252524A4A468B
:102B100046460000000000003C6643C3C3C3C343F5
:102B2000663C0000000000007C666362667C6060BA
:102B300060600000000000003C6642C2C2C2426603
:102B40003C180F00000000007C6666667C6C6466C2
:102B500062630000000000003E604060380E060224
:102B6000067C0000000000007F18181818181818BC
:102B7000181800000000000043434343434343420E
:102B8000663C000000000000C3C2466664243C3876
:102B90001800000000000000C1C1C1DB5B5B5F6783
:102BA000666600000000000046642C3818382C6669
:102BB000C200000000000000C346642C381818183A
:102BC00018000000000000007E06040C0818102009
:102BD000607F0000000000003C303030303030308A
:102BE00030303030303C0000602030101018080CBD
:102BF00004040602000000003C0C0C0C0C0C0C0C35
:102C00000C0C0C0C0C3C0000181C2426420000008C
:102C100000000000000000000000FF0000000000B5
:102C2000000000000000000030180000000000005C
:102C300000000000000000003C26023E62663E00EC
:102C400000000000000000006060607C766263624B
:102C5000667C0000000000001E30606060301E00D6
:102C600000000000000000000202023E62424242F8
:102C7000663A0000000000003C66427E40603E0074
:102C800000000000000000000F181010FF101010CE
:102C900010100000000000003F6666667C607E4306
:102CA000427E0000000000006060607C766262622C
:102CB0006262000000000000181800780808080888
:102CC000087E0000000000000C0C007C04040404DA
:102CD0000404044C78000000606060666C78786CD6
:102CE000646600000000000078080808080808086A
:102CF000087E000000000000767B5B5B5B5B5B0096
:102D000000000000000000007C76626262626200E7
:102D100000000000000000003C66434342663C00A7
:102D200000000000000000007C76626362667C6048
:102D300060600000000000003E62424242663A02CB
:102D400002020000000000006E72636060606000BC
:102D500000000000000000003E60603C06067C00B1
:102D600000000000000000001030FE303030301055
:102D70001E000000000000006262626262663A00AB
:102D8000000000000000000043626624341C1800AC
:102D90000000000000000000C1C35B5B5E666600CF
:102DA000000000000000000062263C183C26630082
:102DB0000000000000000000436266243418181868
:102DC00030E00000000000007E04081810207E00A3
:102DD00000000000000000000E18181818107010F5
:102DE00018181818180E000018181818181818189D
:102DF000181818181818180030180808080C0608B1
:102E00000808080818300000735BCE0000000000BE
:102E10000000000000000000000000003FFC000077
:102E20000000000000001FF800000000000000008B
:102E300000007FFE0000000000000CC0188019FE9A
:102E400031FE33407240587C184018401840187EBC
:102E500018401840184000400000186017FE30006D
:102E600033FC730C73FC500017FE140213FC10604B
:102E70001020106010E0000000000100010001FEC1
:102E800001FE0100010003803FFC300C300C300CCF
:102E90003FFC3FFC300C0000000003FC1FE0100072
:102EA00010001FF81E1812181330333031E030C0F4
:102EB00063F06F3C180400000000199809907FFE31
:102EC00060066FF61FF818180FF001803FFC318C78
:102ED000318C319C01900000000000803FFC3FFCE1
:102EE00032103FFC3FFC331023F025E027F823305D
:102EF00061E061E05F3E080000001FF810181FF855
:102F00001FF810041FFC0FF804207FFE7FFE043022
:102F10000C30383020300000000000807C8C049899
:102F200004B07CA0608063FE7CB00C9004900C9890
:102F30000CEC1CE6188000000000010003007FFE7E
:102F400007E006600E301B18710E60000088248CAC
:102F50002406643247F000000000000C7C0C7C0C5E
:102F600065FF640C7C0C7C8C64CC644C7C0C7C0C0D
:102F7000640C400C00380000000018F018F8189895
:102F80007E98189818983C983E987898599819986F
:102F9000191A1B1E1A0E000000000080008000801D
:102FA0000080188018FC18801880188018801880FD
:102FB00018807FFE7FFE0000000000003FFC0080C4
:102FC00000801880188018FC1880188018801880DD
:102FD00019807FFE00000000000020C020C020C03B
:102FE00020CE20F83EE020C0208020C020C026C097
:102FF0003C8630FE007C000000000C600C6C4C64D1
:103000006C602FFE0D700C601C703C706CD00C98C6
:103010000D8C0F060E0000000000010001003FF8BB
:103020003FF8210823183FF8210821083FF8338092
:103030002100010201FE00000000018001807FFEEE
:10304000600664261C38380E60041FF80180018079
:10305000018001807FFF00000000182010207FFE0B
:103060003060286069FE7EC07CF008FC3E08F89065
:1030700008F00830081800000000200033FC180099
:10308000000007FE7FFC1880199819081BFC1BC460
:1030900018007FFE43FE00000000206027FE306025
:1030A00013FC07FC664477FC30F031F8336C36666D
:1030B00034607E0047FE0000000019FC09FE000697
:1030C000600667E66426642667E66426642667E68B
:1030D00060066006601C00002000400080000102C5
:1030E00002030405060708090A0B0C0D0E0F101049
:1030F00000000000000000000102030406070809A8
:103100000000000001020304283100080000002034
:103110004C00000028010008743100084C00002019
:10312000CC0B00004401000800000000000000007B
:10313000FFFFFF0000000000000000000000000092
:1031400000000000FFFFFFFF000000000000000083
:10315000000000000000000000000000000000006F
:10316000000000000100000010000000000000004E
:0431700000127A00CF
:04000005080000ED02
:00000001FF
