:020000040800F2
:10000000380B002089010008F7100008371000089D
:10001000F51000088F020008991500080000000084
:10002000000000000000000000000000B312000803
:100030009102000800000000B1120008B51200088B
:10004000A3010008A3010008A3010008A301000800
:10005000A3010008A3010008A3010008A3010008F0
:10006000A3010008A3010008A3010008A3010008E0
:10007000A3010008A3010008A3010008A3010008D0
:10008000A3010008A3010008A3010008A3010008C0
:10009000A3010008A3010008A3010008A3010008B0
:1000A000A3010008A3010008A3010008A3010008A0
:1000B000A3010008A3010008A3010008A301000890
:1000C000A3010008A3010008A3010008A301000880
:1000D000A30100088D150008A3010008A301000872
:1000E000A3010008A3010008A301000800F002F822
:1000F00000F03AF80AA090E8000C82448344AAF188
:100100000107DA4501D100F02FF8AFF2090EBAE885
:100110000F0013F0010F18BFFB1A43F0010318473B
:10012000A4220000C4220000103A24BF78C878C17D
:10013000FAD8520724BF30C830C144BF04680C60ED
:10014000704700000023002400250026103A28BF35
:1001500078C1FBD8520728BF30C148BF0B60704739
:100160001FB51FBD10B510BD00F058F81146FFF7C0
:10017000F7FF01F017FB00F076F803B4FFF7F2FF8A
:1001800003BC00F07DF8000009488047094800479B
:10019000FEE7FEE7FEE7FEE7FEE7FEE7FEE7FEE737
:1001A000FEE7FEE704480549054A064B7047000094
:1001B00009130008ED00000838050020380B002066
:1001C00038070020380700204FF0000200B5134622
:1001D00094469646203922BFA0E80C50A0E80C5067
:1001E000B1F12001BFF4F7AF090728BFA0E80C5018
:1001F00048BF0CC05DF804EB890028BF40F8042B11
:1002000008BF704748BF20F8022B11F0804F18BF7D
:1002100000F8012B7047704770477047754600F033
:100220002BF8AE4605006946534620F00700854688
:1002300018B020B5FFF7B6FFBDE820404FF000062C
:100240004FF000074FF000084FF0000B21F00701BE
:10025000AC46ACE8C009ACE8C009ACE8C009ACE801
:10026000C0098D46704710B50446AFF300802046A4
:10027000BDE81040FFF781BF00487047D804002058
:1002800001491820ABBEFEE7260002007047FEE7DA
:10029000704772B6FEE710B590F8211000220229CF
:1002A00005D00421816380F82020012010BD016861
:1002B0000B6823F00E030B6001680B6823F0010349
:1002C0000B6090F84030C46B012101FA03F36360C6
:1002D00080F8211080F82020104610BD10B590F84D
:1002E00021100024022903D00421816301243DE070
:1002F00001680A6822F00E020A6001680A6822F0AA
:1003000001020A601A4A0168914201D1012121E0EB
:10031000174A1432914201D110211BE0144A2832AD
:10032000914201D1891515E0114A3C32914201D127
:1003300089140FE00E4A5032914202D14FF48031BD
:1003400008E00B4A6432914202D14FF4801101E07F
:100350004FF08071064A083A5160012180F821105F
:10036000002180F82010416B01B18847204610BD64
:100370000800024070B5044600F008F90546601C0C
:1003800002D004480078044400F000F9401BA04269
:10039000FAD370BD400000202DE9F84FDFF8B89186
:1003A0000024A9F1040B23460F2709F1040AABF13D
:1003B000040EC9E00125A5402A40AA427DD1674E1E
:1003C000D1F804C0ACEB0608B44532D014DCBCF163
:1003D000030F3AD009DCBCF1000F2AD0BCF1010FA9
:1003E0001CD0BCF1020F31D11DE0BCF1110F17D0B0
:1003F000BCF1120F2AD119E0B8F5881F19D006DC1C
:10040000B8F5803F15D0B8F5801F1FD111E0B8F5C1
:10041000001F0ED0B8F5041F18D10AE0CB6815E014
:10042000CB681B1D12E0CB6808330FE0CB680C33A0
:100430000CE08B682BB1012B4FF0080303D0456112
:1004400004E0042302E0056100E00023FF2A01D854
:10045000064601E000F104064FEA840501D9A5F142
:100460002005D6F8008007FA05FC28EA0C0803FAF4
:1004700005F548EA0508C6F800804D68ED0062D52C
:10048000374DAE6946F00106AE61AD6924F0030652
:1004900005F001050095334D06EB050CDCF808501E
:1004A000A607360F07FA06F825EA0805DFF8B88030
:1004B000404503D14FF0000817E044E0DFF8AC807E
:1004C000404502D14FF001080FE0DFF8A48040451D
:1004D00002D14FF0020808E0DFF89880404502D1D1
:1004E0004FF0030801E04FF0040808FA06F848EA64
:1004F0000508CCF808804D68D9F80060ED024D463B
:1005000001D5164300E096432E604D68DAF800608E
:10051000AD02554601D5164300E096432E604D6866
:10052000DBF80060AD035D4601D5164300E096435D
:100530002E604D68DEF80060ED03754601D5164368
:1005400000E096432E60641C0D682A46E5407FF467
:1005500031AFBDE8F88F0000080401400000111021
:10056000001002400000014000080140000C014062
:1005700000100140001401408068084000D00120B4
:1005800070470AB1016170470904FBE701488068C0
:100590007047000040000020024881680278114442
:1005A0008160704740000020074810B5016841F0A5
:1005B00010010160032000F075F80F2000F006F82C
:1005C00000F024F8002010BD0020024070B50D4D51
:1005D00004464FF47A712878B1FBF0F00A490968B3
:1005E000B1FBF0F000F0DCFA48B9102C07D2002281
:1005F0002146501E00F036F800206C6070BD0120CE
:1006000070BD0000400000204C0000200C4808B5E0
:10061000816941F001018161816901F0010100916D
:10062000C16941F08051C161C06900F08050009003
:100630000448416821F0E06141F00071416008BD6B
:100640000010024000000140002809DB00F01F02FA
:10065000012191404009800000F1E020C0F8001124
:1006600070470000F0B40E4B1B680C46C3F3022326
:10067000C3F10705042D00D90425191D072901D24E
:10068000002300E0DB1E012606FA05F1491E214089
:1006900099409E40761E16403143F0BC00F07DBF6D
:1006A0000CED00E0064900F0070208684FF6FF0372
:1006B000184040EA0220034A1043086070470000D7
:1006C0000CED00E00000FA052DE9F0470F460500AB
:1006D00061D0434E306800F00700B84209D230685C
:1006E00020F0070038433060306800F00700B8425F
:1006F00051D128683B4C810712D5400703D560686B
:1007000040F4E06060602878000703D5606840F43A
:10071000605060606068A96820F0F0000843606085
:100720002878C00728D06868012810D021680228DE
:1007300010D0890700292EDA616821F003010143F6
:100740006160FFF723FF804641F288390DE02168A0
:100750008903EFE78901EDE7FFF718FFA0EB080138
:10076000494502D90320BDE8F0876068696800F058
:100770000C00B0EB810FEFD1306800F00700B842F9
:100780000BD9306820F0070038433060306800F043
:100790000700B84201D00120E5E72878400705D5D9
:1007A0006068E96820F4E06008436060287800072A
:1007B00006D56068296920F4605040EAC100606095
:1007C00000F038F86168084AC1F30311515CC84071
:1007D0000649086006480068FFF7F8FE0020C2E7F7
:1007E0000020024000100240AA2300084C00002014
:1007F000440000200448054900684968044AC1F3E0
:100800000221515CC84070474C000020001002409B
:10081000BA2300080448054900684968044AC1F33E
:10082000C221515CC84070474C00002000100240BB
:10083000BA2300080E4A51680E4801F00C03042B3D
:1008400011D0082B0FD10C48C1F38343C903C05CFE
:100850000AD55168084AC1F34041921E515C054ACD
:100860005043B0FBF1F07047044948437047000023
:100870000010024000127A009A23000800093D008F
:100880002DE9F84F040070D02078C04DC00749D042
:100890006868C0F38100012807D06868C0F3810050
:1008A000022809D16868C00306D52868800339D5B5
:1008B00060680028E7D035E06068B0F5803F0BD075
:1008C00010B1B0F5A02F11D0286820F48030286036
:1008D000286820F4802002E0286840F480302860F6
:1008E000606890B1FFF752FE06460AE0286840F4BF
:1008F00080202860F0E700BFFFF748FE801B6428D7
:1009000073D828688003F7D50CE0FFF73FFE064652
:1009100005E000BFFFF73AFE801B6428F0D8286886
:100920008003F7D420789A4E80074FF001094FF0EA
:10093000000839D5686810F00C0F07D06868C0F35C
:100940008100022809D16868C00306D4286880079E
:1009500014D52069012808D110E02069B0B1C6F88B
:100960000090FFF713FE074605E00AE1FFF70EFED1
:10097000C01B0228C4D828688007F7D52868616999
:1009800020F0F80040EAC10028600DE0C6F80080C1
:10099000FFF7FCFD074604E0FFF7F8FDC01B022847
:1009A00023D828688007F7D4207800072CD5794809
:1009B000A169D9B1C0F80090FFF7E8FD074604E04F
:1009C000FFF7E4FDC01B02280FD8686A8007F7D53F
:1009D00071484FF4FA510068B0FBF1F0009000BF8D
:1009E0000098411E0091FAD20EE080E0C0F800802D
:1009F000FFF7CCFD074604E0FFF7C8FDC01B022847
:100A000075D8686A8007F7D42078400760D5E86910
:100A10000027C00008D4E86940F08050E861E86928
:100A2000012700F0805000905C480168C90513D48C
:100A30000168834641F480710160FFF7A7FD82469B
:100A400006E000BFFFF7A2FDA0EB0A0064284ED825
:100A5000DBF80000C005F5D5E06801280AD008B130
:100A6000052813D0286A20F001002862286A20F0A7
:100A7000040002E0286A40F001002862E06841F2C8
:100A8000883B98B1FFF782FD82460BE0286A40F070
:100A900004002862EEE700BFFFF778FDA0EB0A0133
:100AA00059455AD8286A8007F6D50CE0FFF76EFD45
:100AB000824605E0FFF76AFDA0EB0A0159454CD8D4
:100AC000286A8007F6D41FB1E86920F08050E861F9
:100AD000E06988B36968C1F38101022944D0022822
:100AE000C6F8608004D0FFF751FD044638E034E0DA
:100AF000FFF74CFD074604E0FFF748FDC01B022846
:100B00002BD828688001F7D4206AB0F5803F05D142
:100B10006868A16820F4003008436860D4E90801DF
:100B20000843696821F4741108436860C6F860904E
:100B3000FFF72CFD044606E025E000BFFFF726FD89
:100B4000001B022809D828688001F7D51BE000BFE8
:100B5000FFF71CFD001B022802D90320BDE8F88F17
:100B600028688001F4D40EE00128F7D06868226A72
:100B700000F48031914204D1616A00F4701088421F
:100B800001D00120EAE70020E8E700000010024061
:100B900000004242800442424C00002000700040AD
:100BA00010B5401EB0F1807F01D3012010BD4FF081
:100BB000E02460610F21601700F0EFFC0020A061CD
:100BC00007202061002010BD70477047F8B501680C
:100BD00004460868CA684B6910F00F0F4FF0000513
:100BE00059D003F0010602F49077374365D0C1076E
:100BF00005D0D10503D5616C41F001016164410765
:100C000005D5D90703D0616C41F002016164810709
:100C100005D5D90703D0616C41F004016164010777
:100C200007D502F02001314303D0616C41F0080187
:100C30006164616C00293AD0800604D5900602D523
:100C4000204600F091FB20684069616CC0F3801081
:100C5000090700D460B3204600F05FFB20684069BC
:100C6000400621D52068143050E8001F21F04001D3
:100C700040E80012002AF5D1E06BA8B16D4941634C
:100C8000E06BFFF72BFB002811D0E06B416B01B04C
:100C9000BDE8F040084783060FD593060DD52046E2
:100CA000BDE8F84000F060BB2046FFF78EFFF8BDBE
:100CB0002046FFF78AFF6564F8BD266B2023012ECE
:100CC0007CD1C6067AD5D60678D5086848680090E3
:100CD00048694FF00206400640D5E16B086840685D
:100CE0000004000CE8D0A28D8242E5D9E085886935
:100CF00020282DD020680C3050E8001F21F480718E
:100D000040E80012002AF5D12068143050E8001F96
:100D100021F0010140E80012002AF5D120681430CA
:100D200050E8001F21F0400140E80012002AF5D1F0
:100D300084F84230256320680C3050E8001F21F011
:100D4000100140E80012002AF5D1E06BFFF7A3FA8A
:100D50006663A08DE18D401A81B22AE0A08DE18DFD
:100D6000401A81B2E08D0028A6D00029A4D02268C4
:100D70000C3252E8000F20F4907042E80007002F78
:100D8000F5D12068143050E8002F22F0010240E82D
:100D90000027002FF5D184F84230256320680C30FD
:100DA00050E8002F22F0100240E80023002BF5D17C
:100DB00066632046FFF708FFF8BDFFE705062BD561
:100DC000150629D594F841002128F5D1A068B0F581
:100DD000805F01D12069B0B1206A411C2162216885
:100DE00000784860E08C401E0004000CE084E3D1F1
:100DF0002068C16821F08001C1602068C16841F0AD
:100E00004001C160D8E7206A0088C0F3080048604C
:100E1000206A801C2062E5E74006CDD55006CBD580
:100E2000CA68204622F04002CA6084F8413000F0CF
:100E300001F9C1E70B13000870B5040004D094F861
:100E40004100002510B106E0012070BD84F840503B
:100E5000204600F023F8242084F841002068C1686F
:100E600021F40051C160204600F0E0FA20680169D9
:100E700021F4904101612068416921F02A0141611A
:100E80002068C16841F40051C1606564202084F885
:100E9000410084F842006563002070BD30B585B024
:100EA0000024009401940294039400681849884235
:100EB0002CD11848816941F480418161816901F434
:100EC00080410491816941F0040181618069124D82
:100ED00000F0040004904FF4007000900220019094
:100EE0000320039069462846FFF756FA2815CDE9F6
:100EF0000004694628460294FFF74EFA00220221B8
:100F00002520FFF7AFFB2520FFF79EFB05B030BD86
:100F100000380140001002400008014090F84230C3
:100F2000202B01D00220704721B11AB100230363A6
:100F300000F0D8BA0120704730B4006811498842E7
:100F40001DD11148C1788269491C01F03F01521C32
:100F500082610279914208D0C27A0C4BC4781A554A
:100F6000C170C169491CC16102E0016A491C01628A
:100F70000549012230BC0B310548FFF7CFBF30BC1B
:100F8000704700000038014000000020500400209D
:100F9000900400202DE9F843044690F8410098465B
:100FA00016460D46202802D00220BDE8F88385B100
:100FB0007EB100206064212084F84100FFF7E6FA4A
:100FC000A6848146E684A0682027B0F5805F02D021
:100FD00003E00120E9E7206910B12E4600250EE06C
:100FE00000260CE08021204600F097FAA8B9C6B18F
:100FF00016F8010B21684860E08C401EE084E08C0C
:101000004B464FF00002CDF800800028EAD14FF0A7
:101010004001204600F081FA40B184F8417003207D
:10102000C3E735F8020BC0F30800E3E784F841702A
:101030000020BAE77047FEE730B585B000241C48B1
:101040000094019402940394816941F0200181612C
:10105000816901F020010491816941F004018161FD
:10106000816901F004010491816941F00801816105
:101070008069104D00F0080004900122C02128462C
:10108000FFF77FFA2020CDE90004012469460A48D1
:101090000294FFF781F9C02000901120CDE90104EE
:1010A0000320039069462846FFF776F905B030BD66
:1010B00000100240000C0140000801400C4810B52F
:1010C0000A4901604FF4E1314160002181600C2246
:1010D000C160C0E904128161C161FFF7ADFE002863
:1010E00003D0BDE81040FFF7D4B810BD0038014070
:1010F00090040020FEE7FEE710B50021074C0A46E9
:10110000002004EBC1131A54401CC0B28028FAD34B
:10111000491CC9B20829F3D310BD000050000020BB
:1011200010B56420FFF726F9AE2000F06DFCD52045
:1011300000F06AFC802000F067FCA82000F064FC4E
:101140003F2000F061FCD32000F05EFC002000F0A6
:101150005BFC402000F058FC8D2000F055FC142072
:1011600000F052FC202000F04FFC022000F04CFC6C
:10117000A12000F049FCC82000F046FCDA2000F075
:1011800043FC122000F040FC812000F03DFCCF2009
:1011900000F03AFCD92000F037FCF12000F034FCDC
:1011A000DB2000F031FC402000F02EFCA42000F0F9
:1011B0002BFCA62000F028FCFFF79EFF00F04AF869
:1011C000BDE81040AF2000F01FBC70B514460E46BD
:1011D000054606E03146284600F020F80835EDB215
:1011E000641C2278002AF5D170BDFEB50A230024C4
:1011F0008DF80A406D461C46B2FBF4F604FB162639
:10120000B2FBF4F25B1EDBB23036EE540AB1002BB7
:10121000F2D1EA18FFF7D9FFFEBD00000346A2F1A4
:1012200020005F2808D2054800EB02100A46194644
:10123000A0F5007000F00CBA70470000E81A000832
:10124000162804D2024B03EB401000F0B7B97047E8
:10125000D82000082DE9F041DFF85080002400BFBD
:1012600044F0B00000F0D0FB002000F0CDFB1020D7
:1012700000F0CAFB08EBC417802600F03DFA782086
:1012800000F060FA402000F05DFA0025785D00F083
:1012900059FA6D1CEDB2B542F8D300F03FFA641C68
:1012A000E4B2082CDCD3BDE8F0810000500000203F
:1012B00070477047FFF770B910B590B028216846A5
:1012C000FEF782FF14210AA8FEF77EFF022000909D
:1012D0000120049010200024059007946846FFF731
:1012E000CFFA08B172B6FEE70F20CDE90A040C94DC
:1012F0000D9400210AA80E94FFF7E6F9002801D00A
:1013000072B6FEE710B010BD704710B5406A0021FC
:10131000C185C184FFF759FC10BD01680C3151E84B
:10132000002F22F4907241E80023002BF5D10168D0
:10133000143151E8002F22F0010241E80023002B74
:10134000F5D1016B012909D101680C3151E8002F59
:1013500022F0100241E80023002BF5D1202180F873
:10136000421000210163704708B590F8421022290D
:1013700001D0022008BD82684FF480539A4201D107
:10138000016921B1816A9A421BD04AB10AE0026820
:10139000816A5268C2F308020A80816A891C08E0E7
:1013A000026972B10268526802F07F020A70816AB3
:1013B000491C8162C18D491E0904090CC18503D0F5
:1013C0001BE002685268F1E70168CA6822F0200257
:1013D000CA600168CA6822F48072CA6001684A69FA
:1013E00022F001024A61202180F84210002141636D
:1013F000026B012A03D0FFF79FFD002008BD0163A7
:1014000001680C3151E8002F22F0100241E800235E
:10141000002BF5D101680A68D20602D50A6849682E
:101420000091818DFFF7D0FBE7E7000070B504461F
:1014300000680169E26821F44051114301612169AA
:10144000A0680843616908432168CA6841F20C63D7
:101450009A430243CA6020684169A26921F440713D
:10146000114341611E492068884202D1FFF7D2F939
:1014700001E0FFF7BFF900EBC00101EB001260686B
:1014800064218000B2FBF0F3B3FBF1F36FF01806B8
:101490007343B2FBF0F5B2FBF0F605EB83053223A4
:1014A00003EB0515B5FBF1F5B6FBF1F605F0F0051C
:1014B00005EB0615B2FBF0F6B2FBF0F0B0FBF1F075
:1014C0006FF01802504306EB800003EB0010B0FBF6
:1014D000F1F0216800F00F002844886070BD000022
:1014E0000038014081628285C28500214164222149
:1014F00080F84210016921B10168CA6842F4807223
:10150000CA6001684A6942F001024A610068C16824
:1015100041F02001C160002070472DE9F843984652
:1015200017460D460446089E24E0701C22D0FFF7A3
:101530002DF8A0EB0800B0421AD8CEB12068C168DF
:10154000490717D5802D15D0402D13D00168C94308
:1015500009070FD401680025406800902046FFF776
:10156000DCFE0820606484F840500120BDE8F88368
:101570000320FBE72068006835EA000004D0002063
:10158000B842D2D00020F1E70120F9E70148FFF787
:101590001DBB000090040020FEE70907090E00288B
:1015A00004DB00F1E02080F80014704700F00F0029
:1015B00000F1E02080F8141D70470000F0B500260F
:1015C00035463446012704F0070C0023CCF1070C04
:1015D0004FEA430E0EEBD40E10F80EE02EFA0CFE7E
:1015E0005FEACE7E05D007FA03FE0EF0FF0E4EEA4C
:1015F000060603F1080E4FEA0E6E4FEADE5E0EEBB2
:10160000D40E10F80EE02EFA0CFE5FEACE7E05D066
:1016100007FA03FE0EF0FF0E4EEA05055B1CDBB277
:10162000082BD5D3DFF824C00B190CEBC21E641CA9
:101630000EF80360561CF6B20CEBC616E4B2F55475
:1016400000263546102CBED3F0BD0000500000200F
:10165000F0B5002635463446012704F0070C002378
:10166000CCF1070C03EBD40E10F80EE02EFA0CFEB2
:101670005FEACE7E05D007FA03FE0EF0FF0E4EEABB
:10168000060603F1080E0EF0FF0E0EEBD40E10F856
:101690000EE02EFA0CFE5FEACE7E05D007FA03FEBE
:1016A0000EF0FF0E4EEA05055B1CDBB2082BD9D30A
:1016B000DFF824C00B190CEBC21E641C0EF803608B
:1016C000561CF6B20CEBC616E4B2F55400263546AD
:1016D000082CC2D3F0BD00005000002008B5022045
:1016E0008DF800009DF80000002803D09DF8000050
:1016F000401EF5E708BD000070B50748802505606D
:1017000040240460FFF7EAFF034E361D3560FFF703
:10171000E5FF346070BD0000100C014070B5084852
:1017200080240460FFF7DAFF054D40202D1F28605C
:10173000FFF7D4FF2C60BDE87040FFF7CFBF00007B
:10174000140C01402DE9F047154E002507464FF0D7
:10175000800906F1040840243806484601D5306067
:1017600001E0C8F800007806070EFFF7B7FF346005
:10177000FFF7B4FFC8F800406D1CEDB2082DEBD3A5
:10178000C6F80090FFF7AAFF3460FFF7A7FF0448F0
:1017900008380068C8F80040C0F3C010BDE8F08702
:1017A000100C01401CB5FEF7FFFEFFF785FDFFF7AB
:1017B00043FCFFF783FCFFF7B3FC00F07BF801224A
:1017C00038493948FFF7AAFB364D4FF00108293553
:1017D0004FF00009A5F13404FEF7D8FE0646334F5A
:1017E00007E0395C401C00F03F002071084600F023
:1017F0001DF92079E1788842F3D1E06A2746301A52
:101800000A2820D320212A48FE62FEF7B5FEA8B19F
:1018100000202978814213D16978FF2906D2022954
:1018200004D2491CC9B2697002290CD3A97881423B
:1018300009D0A87038B185F8038006E00120E8E7F8
:10184000287085F80180E878F0B185F80390B878C1
:1018500090F00100B87000D00120AA218DF800108E
:1018600055218DF8011002218DF804008DF8021029
:1018700080F003008DF805008DF803801423062204
:1018800069460948FFF786FB78780028A4D0386BB2
:10189000301A1428A0D387F801903E6300F00AF8AC
:1018A0009AE700000B000020900400205004002064
:1018B000000801402DE9F0414B4CE08908B1217846
:1018C00009B1002605E0B0F5487F01D2012600E00D
:1018D0000226A18AA08928270A2581421DD0A0823C
:1018E000002142A20846FFF770FC42A200212820F6
:1018F000FFF76BFCA0890021B0FBF5F22820FFF771
:1019000074FCA089B0FBF5F000F0E2F807EBC00032
:10191000C0B23AA20021FFF758FCE18AE089814277
:101920001DD0E08236A202210020FFF74EFC31A23A
:1019300002212820FFF749FCE0890221B0FBF5F2E3
:101940002820FFF752FCE089B0FBF5F000F0C0F86A
:1019500007EBC000C0B229A20221FFF736FC607974
:10196000B04219D06671DEB1012E4FF004024FF083
:10197000000128D01420FFF763FC04221021062068
:10198000FFF75EFC042220210720FFF759FC042208
:1019900030210520FFF754FCBDE8F041FFF75ABCA9
:1019A000042200211020FFF74BFC042210210B2001
:1019B000FFF746FC042220210220FFF741FC04220D
:1019C00030210C20E6E70D20FFF73AFC042210211D
:1019D0000520FFF735FC042220211320FFF730FCFF
:1019E000042230210120D5E70000002050574D315E
:1019F0003A00000020202020000000002500000008
:101A000050574D323A00000010B50446FFF774FEFF
:101A10007820FFF797FE0020FFF794FE2046FFF79F
:101A200091FEBDE81040FFF779BE0000F0B52749F0
:101A300000240A468F79967A012501F1380386EA57
:101A40000002062F18D2DFE807F003070D131B2949
:101A5000AA2800D18D71F0BD552801D102201BE0CC
:101A6000002019E0C87188720128F9D1032013E021
:101A700008728A72052801D08C71F0BD4C720AE0A0
:101A80004C7A1855641CE0B248728A720A7A904205
:101A900001D3052000E004208871F0BD8C71B042B4
:101AA00010D1486A401C4862188842BA8A81588816
:101AB00040BAC8810A824882187900F00100087093
:101AC0004D70F0BD886A401C8862F0BD00000020A7
:101AD00001210A2204E000BFB0FBF2F0491CC9B2A8
:101AE0000A28F9D2084670470000000000000000F4
:101AF000000000000000000018181818181818003E
:101B00001818000000000000343424000000000019
:101B100000000000000000003636367F2424FF2439
:101B2000242C000000000000083E684868381E169B
:101B300012167C101000000062D6D46818103E2ADD
:101B40004ACE000000000000386C6C683072DECEB7
:101B50004E7A000000000000181818000000000075
:101B60000000000000000000040C1810103030309D
:101B7000301010180C040000203018080C0C04045D
:101B80000C0C081830200000086A3C3C6A08000071
:101B900000000000000000001818187F1818180036
:101BA00000000000000000001818081830000000B5
:101BB00000000000000000003C00000000000000E9
:101BC0000000000000000000000000000000000015
:101BD00000000000181800000206040C081810107D
:101BE00030206040000000003C6642474F53634293
:101BF000663C000000000000183848080808080883
:101C0000087E0000000000003C660606060C183046
:101C1000607E0000000000007C0606043C06020214
:101C2000067C0000000000000C1C14342464C4FF77
:101C300004040000000000007E6060607C06020278
:101C400006780000000000001E3060407C664362A1
:101C5000663C0000000000007E0206040C08181814
:101C600030300000000000003C6662663C266242A4
:101C7000663C0000000000003C664242663A0206F4
:101C80000C78000000000000181800000018180070
:101C900000000000000000001818000000181808DC
:101CA0001830000000000000040C186060180C04DC
:101CB00000000000000000007E007E000000000028
:101CC000000000000000000020300C06060C302050
:101CD0000000000000000000380C0606061C100082
:101CE00010100000000000001C264243DFBDAFAB17
:101CF000AABEC0443800000018382C2464667EC296
:101D0000C3000000000000007C6662667C666262C0
:101D1000667C0000000000001E32604040404060D1
:101D2000721E0000000000007C46424343434342D1
:101D3000467C0000000000007E6060607E606060A5
:101D4000607E0000000000007E606060607E606079
:101D500060600000000000001E326040C0CF4343BE
:101D6000633E000000000000434343437F4343437E
:101D700043430000000000007E18181818181818B7
:101D8000187E0000000000007E0606060606060417
:101D90004C3800000000000062646C787070786C51
:101DA000666200000000000020202020202020206B
:101DB000203E000000000000636767775BDBDBC349
:101DC000C3C300000000000062627252524A4A46D9
:101DD00046460000000000003C6643C3C3C3C34343
:101DE000663C0000000000007C666362667C606008
:101DF00060600000000000003C6642C2C2C2426651
:101E00003C180F00000000007C6666667C6C64660F
:101E100062630000000000003E604060380E060271
:101E2000067C0000000000007F1818181818181809
:101E3000181800000000000043434343434343425B
:101E4000663C000000000000C3C2466664243C38C3
:101E50001800000000000000C1C1C1DB5B5B5F67D0
:101E6000666600000000000046642C3818382C66B6
:101E7000C200000000000000C346642C3818181887
:101E800018000000000000007E06040C0818102056
:101E9000607F0000000000003C30303030303030D7
:101EA00030303030303C0000602030101018080C0A
:101EB00004040602000000003C0C0C0C0C0C0C0C82
:101EC0000C0C0C0C0C3C0000181C242642000000DA
:101ED00000000000000000000000FF000000000003
:101EE00000000000000000003018000000000000AA
:101EF00000000000000000003C26023E62663E003A
:101F000000000000000000006060607C7662636298
:101F1000667C0000000000001E30606060301E0023
:101F200000000000000000000202023E6242424245
:101F3000663A0000000000003C66427E40603E00C1
:101F400000000000000000000F181010FF1010101B
:101F500010100000000000003F6666667C607E4353
:101F6000427E0000000000006060607C7662626279
:101F700062620000000000001818007808080808D5
:101F8000087E0000000000000C0C007C0404040427
:101F90000404044C78000000606060666C78786C23
:101FA00064660000000000007808080808080808B7
:101FB000087E000000000000767B5B5B5B5B5B00E3
:101FC00000000000000000007C7662626262620035
:101FD00000000000000000003C66434342663C00F5
:101FE00000000000000000007C76626362667C6096
:101FF00060600000000000003E62424242663A0219
:1020000002020000000000006E7263606060600009
:1020100000000000000000003E60603C06067C00FE
:1020200000000000000000001030FE3030303010A2
:102030001E000000000000006262626262663A00F8
:10204000000000000000000043626624341C1800F9
:102050000000000000000000C1C35B5B5E6666001C
:10206000000000000000000062263C183C266300CF
:1020700000000000000000004362662434181818B5
:1020800030E00000000000007E04081810207E00F0
:1020900000000000000000000E1818181810701042
:1020A00018181818180E00001818181818181818EA
:1020B000181818181818180030180808080C0608FE
:1020C0000808080818300000735BCE00000000000C
:1020D0000000000000000000000000003FFC0000C5
:1020E0000000000000001FF80000000000000000D9
:1020F00000007FFE0000000000000CC0188019FEE8
:1021000031FE33407240587C184018401840187E09
:1021100018401840184000400000186017FE3000BA
:1021200033FC730C73FC500017FE140213FC106098
:102130001020106010E0000000000100010001FE0E
:1021400001FE0100010003803FFC300C300C300C1C
:102150003FFC3FFC300C0000000003FC1FE01000BF
:1021600010001FF81E1812181330333031E030C041
:1021700063F06F3C180400000000199809907FFE7E
:1021800060066FF61FF818180FF001803FFC318CC5
:10219000318C319C01900000000000803FFC3FFC2E
:1021A00032103FFC3FFC331023F025E027F82330AA
:1021B00061E061E05F3E080000001FF810181FF8A2
:1021C0001FF810041FFC0FF804207FFE7FFE043070
:1021D0000C30383020300000000000807C8C0498E7
:1021E00004B07CA0608063FE7CB00C9004900C98DE
:1021F0000CEC1CE6188000000000010003007FFECC
:1022000007E006600E301B18710E60000088248CF9
:102210002406643247F000000000000C7C0C7C0CAB
:1022200065FF640C7C0C7C8C64CC644C7C0C7C0C5A
:10223000640C400C00380000000018F018F81898E2
:102240007E98189818983C983E98789859981998BC
:10225000191A1B1E1A0E000000000080008000806A
:102260000080188018FC188018801880188018804A
:1022700018807FFE7FFE0000000000003FFC008011
:1022800000801880188018FC18801880188018802A
:1022900019807FFE00000000000020C020C020C088
:1022A00020CE20F83EE020C0208020C020C026C0E4
:1022B0003C8630FE007C000000000C600C6C4C641E
:1022C0006C602FFE0D700C601C703C706CD00C9814
:1022D0000D8C0F060E0000000000010001003FF809
:1022E0003FF8210823183FF8210821083FF83380E0
:1022F0002100010201FE00000000018001807FFE3C
:10230000600664261C38380E60041FF801800180C6
:10231000018001807FFF00000000182010207FFE58
:102320003060286069FE7EC07CF008FC3E08F890B2
:1023300008F00830081800000000200033FC1800E6
:10234000000007FE7FFC1880199819081BFC1BC4AD
:1023500018007FFE43FE00000000206027FE306072
:1023600013FC07FC664477FC30F031F8336C3666BA
:1023700034607E0047FE0000000019FC09FE0006E4
:10238000600667E66426642667E66426642667E6D8
:1023900060066006601C00000102020304050607D7
:1023A00008090A0B0C0D0E0F1010000000000000B1
:1023B00000000102030406070809000000000102F2
:1023C00003040000E4230008000000205000000087
:1023D000280100083424000850000020E80A00000A
:1023E000440100080000000000FF000000000000A1
:1023F0000000000000000000FFFFFFFF00000000E1
:1024000000000000000000000000000000000000CC
:1024100000000000000000000000000000000000BC
:10242000000000000100000010000000000000009B
:0424300000127A001C
:04000005080000ED02
:00000001FF
