:020000040800F2
:1000000010070020A5010008171A00086B18000847
:10001000151A0008D70A0008091F00080000000090
:100020000000000000000000000000002B1C000881
:10003000D90A000800000000291C00082D1C000837
:10004000BF010008BF010008BF010008BF01000890
:10005000BF010008BF010008BF010008BF01000880
:10006000BF010008BF010008BF010008BF01000870
:10007000BF010008BF010008BF010008BF01000860
:10008000BF010008BF010008BF010008BF01000850
:10009000BF010008BF010008BF010008BF01000840
:1000A000BF010008BF010008BF010008BF01000830
:1000B000BF010008BF010008BF010008BF01000820
:1000C000BF010008BF010008BF010008BF01000810
:1000D000BF010008FD1E0008BF010008BF010008A5
:1000E000BF010008BF010008BF01000800F002F8CE
:1000F00000F048F80AA090E8000C82448344AAF17A
:100100000107DA4501D100F03DF8AFF2090EBAE877
:100110000F0013F0010F18BFFB1A43F0010318473B
:10012000F023000010240000103A24BF78C878C1E2
:10013000FAD8520724BF30C830C144BF04680C60ED
:10014000704700000023002400250026103A28BF35
:1001500078C1FBD8520728BF30C148BF0B60704739
:10016000642900F08780002070471FB500F068FC0C
:1001700004000020002101F0C3FF401C60601FBD8F
:1001800010B510BD00F020FC1146FFF7EEFF01F0A6
:10019000CDFE00F047FC03B4FFF7F2FF03BC00F014
:1001A00093FC00000948804709480047FEE7FEE746
:1001B000FEE7FEE7FEE7FEE7FEE7FEE7FEE7FEE717
:1001C00004480549054A064B70470000791C0008A1
:1001D000ED0000081001002010070020100300208F
:1001E000100300200FB41CB5074B06AA7B446946D8
:1001F0000090059800F0C7F90020694600F0D6F994
:100200001CBC5DF814FB0000BD0300002DE9F041AB
:100210000E460446002020622046E168884730B33D
:10022000252805D0D4E901219047206A401CF2E737
:10023000E168204600278847050018D0A5F1410055
:10024000192802D820354FF4006732462946204647
:100250002760FFF785FF40B1012804D0F61D26F086
:1002600007060836D8E7361DD6E72846DAE7206ABB
:10027000BDE8F0812DE9F04106460024106875299B
:10028000314616A510D0AFF30080002802DA4042B4
:1002900013A507E031688A0701D512A502E04907D6
:1002A00004D511A5012401E0AFF3008000210A224A
:1002B00006F1240709E0B0FBF2FCB0FBF2F302FB0D
:1002C0001C00303078541846491C0028F3D12346CE
:1002D0002A463046BDE8F04100F0F6B800000000C4
:1002E0002D0000002B000000200000000FB400B51E
:1002F0008DB010A9099000910B904FF0FF300A903B
:1003000000200C90064878440690064878446A46D7
:1003100007900F9909A800F063F90DB05DF814FB80
:10032000F70200000F0300002DE9FF5F1D464FF0AC
:10033000FF3B91464FF000085F46D5E90146A969A9
:1003400001987F1C8847296A824688470028F6D191
:10035000BAF1FF3F0CD0002E24F4C06419DD600612
:1003600014D5BAF12B0F09D0BAF12D0F0ED103E03D
:10037000584604B0BDE8F09F44F48064A969019830
:100380007F1C8847761E8246002E02DDBAF1300FB0
:1003900003D0B9F1000F26D032E0A969761E01988A
:1003A0007F1C44F400748847002E824605DDBAF1B4
:1003B000780F06D0BAF1580F03D0B9F1000F10D062
:1003C0001EE0B9F1000F02D0B9F1100F18D1A969E0
:1003D000761E01987F1C24F4007488478246102002
:1003E00002E0082000E00A20814609E0A96908FB34
:1003F0000908761E01987F1C44F4007488478246E1
:10040000002E05DD4946504600F0D5F80028EDDA0B
:10041000E96901988847A00502D46FF00100A8E7B8
:10042000E00725D1600613D5600502D5C8F10000AC
:1004300000E0404629680A1D2A600968220501D5A6
:10044000087015E0220701D5088011E008600FE070
:100450002868011D29600068210502D580F8008008
:1004600006E0210702D5A0F8008001E0C0F8008076
:1004700038467EE74FF0000200B513469446964694
:10048000203922BFA0E80C50A0E80C50B1F12001A7
:10049000BFF4F7AF090728BFA0E80C5048BF0CC055
:1004A0005DF804EB890028BF40F8042B08BF7047B3
:1004B00048BF20F8022B11F0804F18BF00F8012B25
:1004C00070477047704770472DE9F0470D469946D1
:1004D0009246044600F124080168880604D5E069C4
:1004E00021F01001216000E00120A84201DD471B3E
:1004F00000E00027A1697A1902EB0900081AA0613F
:100500002078C00602D42046AFF30080002608E021
:10051000D4E901211AF806009047206A401C761C95
:1005200020624E45F4DB2078C0060AD52046AFF3A2
:10053000008006E0D4E9012130209047206A401C69
:100540002062381EA7F10107F4DC07E0D4E901219D
:1005500018F805009047206A401C2062281EA5F16B
:100560000105F3DC2046AFF300802078000602D5B9
:100570000220BDE8F0870120FBE7000001694A1C6A
:1005800002610878704700B58FB0CDE901310021D4
:10059000059105497944CDE9031011466846FFF7F6
:1005A00035FE0FB000BD0000E5FFFFFF0A6802F84E
:1005B000010B0A6070473A2800D2303820F0200240
:1005C000412A01D3A2F13700884201D34FF0FF3016
:1005D00070470000026811441378016018467047A4
:1005E000D16005497944516104497944116200217F
:1005F0001161114600F02EB8EDFFFFFF530000001F
:10060000426842B1016811F8013B23B1521EC0E9B2
:100610000012184670470121C160881E7047426869
:100620005AB1C368016843B983688B4205D0491E3B
:10063000521CC0E90012002070474FF0FF30704795
:1006400010B5044600F0E6F90068005D00F0010016
:1006500010BD00002DE9F34F4FF0000A0C4656463E
:100660008DB001200C9001F10C000B9062690B9889
:1006700001219047051E2DD0252D2CD0216A8847B9
:10068000C0B162690B9801219047216A8847002810
:10069000F7D16269411E0B98904700E0761CA16972
:1006A0000D988847216A88470028F7D1E1690D989D
:1006B0008847DBE7A1690D988847A842074601D122
:1006C000761CD3E7E1690D9888477F1C02D1BAF107
:1006D000000F6FD06BE162690B9800273D463946E9
:1006E00090472A2804D162690B980121904701257F
:1006F000DFF8D08262690B9801219047A0F13001A8
:100700000A290AD24745E5DC07EB870100EB4107E0
:10071000303FDFD445F01005ECE7E90601D46FF077
:1007200000476C280AD04C2814D0682815D06A28B5
:100730000DD074281CD07A281AD01DE062690B985D
:10074000012190476C2802D045F0040514E045F0E3
:1007500002050DE045F020050AE062690B980121D1
:100760009047682802D045F0080505E045F400658B
:1007700062690B9801219047C4E9015765283DD073
:1007800019DC58287AD00CDC452837D004DC252821
:1007900026D041289ED131E046282FD0472899D134
:1007A0002CE05B2877D0612828D063287CD064288F
:1007B00023D15AE0F6E06F2848D008DC66281DD027
:1007C00067281BD0692821D06E2816D127E0702811
:1007D00045D0732868D0752847D078280DD14DE0D2
:1007E000A1690D988847252805463FF469AFE1695E
:1007F0000D9888476D1C3FF46AAFD8E00D992346E9
:100800006A466FF00100AFF30080C5E045F040009C
:1008100023464FF000026060A80736D43EE0E807A8
:100820007FF447AF2068011D21600068290501D5CC
:1008300006701BE7290701D5068017E7A90703D52E
:10084000F117C0E9006111E706600FE745F04000CD
:1008500023464FF008026060A80716D41EE040F659
:100860000E0125EA0100606016E045F040002346D5
:100870004FF00A026060A80707D40FE045F040007F
:100880006060A80708D5234610220D996FF001007B
:10089000AFF3008080E007E0102223460D996FF04F
:1008A0000100FFF741FD77E04FF0000963284F4654
:1008B000C8464B46CB4602D05B2806D038E0E80657
:1008C00001D40120A060012732E06269D4F80CB0A5
:1008D0000B98012190475E2807D14FF00109494646
:1008E0006269D4F80CB00B989047216939B900219E
:1008F0000A4603AB43F82120491C0829FADBD8B388
:10090000216949B308F1010862690B9801219047F8
:100910005D28F4D1B9F1000F09D0002003A951F8E6
:100920002020D24341F82020401C0828F7DB03ABED
:100930002069002820794FEA40701ED05B4622468D
:10094000CDF80080CDE901970D9900286FF00100E6
:1009500020DAAFF300801FE0C11703AA00EBD161DA
:100960004B1121F01F0102EB8302411A1368012091
:10097000884003431360C7E719E00D992246002819
:100980006FF00100009702DAAFF3008004E0AFF3EC
:10099000008001E0AFF3008000280ADA401C06D195
:1009A0000C9820B14FF0FF300FB0BDE8F08F5046EB
:1009B000FAE7E90701D10AF1010A064400200C9088
:1009C00054E60000CCCCCC0C754600F035F8AE46B1
:1009D00005006946534620F00700854618B020B54B
:1009E000FFF7EEFBBDE820404FF000064FF0000798
:1009F0004FF000084FF0000B21F00701AC46ACE8C7
:100A0000C009ACE8C009ACE8C009ACE8C0098D4633
:100A10007047000010B500F013F8001D10BD00BFB6
:100A2000E116000010B50446AFF300802046BDE893
:100A30001040FFF7B0BB000000487047AC0000203A
:100A400000487047CC0000204FF0013C50F8042BC8
:100A500051F8043B9A4221D1A2EB0C03934313EAD1
:100A6000CC1317D150F8042B51F8043B9A4215D1FE
:100A7000A2EB0C03934313EACC130BD150F8042BD5
:100A800051F8043B9A4209D1A2EB0C03934313EAB9
:100A9000CC13DBD04FF00000704700BFD01A01BA72
:100AA000B1FA81F101F0180122FA01F0CB40C1F155
:100AB0002001DBB2C0B2C01A2CFA01F3D11A914363
:100AC00011EAC311E6D1704701491820ABBEFEE719
:100AD000260002007047FEE7704710B590F821101D
:100AE0000022022905D00421816380F82020012002
:100AF00010BD01680B6823F00E030B6001680B68E2
:100B000023F001030B6090F84030C46B012101FA1F
:100B100003F3636080F8211080F82020104610BD98
:100B200010B590F821100024022903D0042181631C
:100B300001243DE001680A6822F00E020A600168A3
:100B40000A6822F001020A601A4A0168914201D142
:100B5000012121E0174A1432914201D110211BE0FA
:100B6000144A2832914201D1891515E0114A3C32CC
:100B7000914201D189140FE00E4A5032914202D1C4
:100B80004FF4803108E00B4A6432914202D14FF4B5
:100B9000801101E04FF08071064A083A516001214E
:100BA00080F82110002180F82010416B01B18847A6
:100BB000204610BD0800024070B5044600F008F958
:100BC0000546601C02D004480078044400F000F997
:100BD000401BA042FAD370BD0C0000202DE9F84F55
:100BE000DFF8B8910024A9F1040B23460F2709F17F
:100BF000040AABF1040EC9E00125A5402A40AA422F
:100C00007DD1674ED1F804C0ACEB0608B44532D0B4
:100C100014DCBCF1030F3AD009DCBCF1000F2AD080
:100C2000BCF1010F1CD0BCF1020F31D11DE0BCF1B1
:100C3000110F17D0BCF1120F2AD119E0B8F5881F97
:100C400019D006DCB8F5803F15D0B8F5801F1FD14C
:100C500011E0B8F5001F0ED0B8F5041F18D10AE056
:100C6000CB6815E0CB681B1D12E0CB6808330FE0A2
:100C7000CB680C330CE08B682BB1012B4FF00803D1
:100C800003D0456104E0042302E0056100E0002395
:100C9000FF2A01D8064601E000F104064FEA840568
:100CA00001D9A5F12005D6F8008007FA05FC28EA4D
:100CB0000C0803FA05F548EA0508C6F800804D68F7
:100CC000ED0062D5374DAE6946F00106AE61AD6903
:100CD00024F0030605F001050095334D06EB050CE5
:100CE000DCF80850A607360F07FA06F825EA0805CB
:100CF000DFF8B880404503D14FF0000817E044E02A
:100D0000DFF8AC80404502D14FF001080FE0DFF87A
:100D1000A480404502D14FF0020808E0DFF8988037
:100D2000404502D14FF0030801E04FF0040808FAF3
:100D300006F848EA0508CCF808804D68D9F8006044
:100D4000ED024D4601D5164300E096432E604D68F6
:100D5000DAF80060AD02554601D5164300E096432F
:100D60002E604D68DBF80060AD035D4601D516438B
:100D700000E096432E604D68DEF80060ED03754696
:100D800001D5164300E096432E60641C0D682A4688
:100D9000E5407FF431AFBDE8F88F00000804014062
:100DA0000000111000100240000001400008014046
:100DB000000C014000100140001401408068084010
:100DC00000D0012070470AB1016170470904FBE7B8
:100DD00001488068704700000C00002002488168CC
:100DE00002781144816070470C000020074810B55C
:100DF000016841F010010160032000F075F80F2038
:100E000000F006F800F024F8002010BD0020024099
:100E100070B50D4D04464FF47A712878B1FBF0F0AF
:100E20000A490968B1FBF0F000F0DCFA48B9102C6F
:100E300007D200222146501E00F036F800206C60D8
:100E400070BD012070BD00000C00002018000020C3
:100E50000C4808B5816941F001018161816901F0A7
:100E600001010091C16941F08051C161C06900F088
:100E7000805000900448416821F0E06141F0007129
:100E8000416008BD0010024000000140002809DB5D
:100E900000F01F02012191404009800000F1E02094
:100EA000C0F8001170470000F0B40E4B1B680C46F0
:100EB000C3F30223C3F10705042D00D90425191D2E
:100EC000072901D2002300E0DB1E012606FA05F106
:100ED000491E214099409E40761E16403143F0BC89
:100EE00001F013B80CED00E0064900F007020868B5
:100EF0004FF6FF03184040EA0220034A10430860FF
:100F0000704700000CED00E00000FA052DE9F04705
:100F10000F46050061D0434E306800F00700B8422C
:100F200009D2306820F0070038433060306800F0A4
:100F30000700B84251D128683B4C810712D54007C1
:100F400003D5606840F4E06060602878000703D54E
:100F5000606840F4605060606068A96820F0F0004C
:100F6000084360602878C00728D06868012810D03E
:100F70002168022810D0890700292EDA616821F043
:100F8000030101436160FFF723FF804641F2883986
:100F90000DE021688903EFE78901EDE7FFF718FF0E
:100FA000A0EB0801494502D90320BDE8F08760683D
:100FB000696800F00C00B0EB810FEFD1306800F0F1
:100FC0000700B8420BD9306820F007003843306082
:100FD000306800F00700B84201D00120E5E728782A
:100FE000400705D56068E96820F4E0600843606068
:100FF0002878000706D56068296920F4605040EA27
:10100000C100606000F038F86168084AC1F303115C
:10101000515CC8400649086006480068FFF7F8FEC2
:101020000020C2E70020024000100240F82400081F
:101030001800002010000020044805490068496895
:10104000044AC1F30221515CC840704718000020D7
:101050000010024008250008044805490068496856
:10106000044AC1F3C221515CC840704718000020F7
:1010700000100240082500080E4A51680E4801F091
:101080000C03042B11D0082B0FD10C48C1F3834360
:10109000C903C05C0AD55168084AC1F34041921E99
:1010A000515C054A5043B0FBF1F070470449484396
:1010B000704700000010024000127A00E824000887
:1010C00000093D002DE9F84F040070D02078C04D94
:1010D000C00749D06868C0F38100012807D068685C
:1010E000C0F38100022809D16868C00306D52868CA
:1010F000800339D560680028E7D035E06068B0F536
:10110000803F0BD010B1B0F5A02F11D0286820F48B
:1011100080302860286820F4802002E0286840F4AD
:1011200080302860606890B1FFF752FE06460AE002
:10113000286840F480202860F0E700BFFFF748FEF1
:10114000801B642873D828688003F7D50CE0FFF76C
:101150003FFE064605E000BFFFF73AFE801B64280D
:10116000F0D828688003F7D420789A4E80074FF093
:1011700001094FF0000839D5686810F00C0F07D04E
:101180006868C0F38100022809D16868C00306D4EA
:101190002868800714D52069012808D110E020694B
:1011A000B0B1C6F80090FFF713FE074605E00AE16C
:1011B000FFF70EFEC01B0228C4D828688007F7D5A9
:1011C0002868616920F0F80040EAC10028600DE05D
:1011D000C6F80080FFF7FCFD074604E0FFF7F8FDC6
:1011E000C01B022823D828688007F7D4207800077E
:1011F0002CD57948A169D9B1C0F80090FFF7E8FD76
:10120000074604E0FFF7E4FDC01B02280FD8686A18
:101210008007F7D571484FF4FA510068B0FBF1F040
:10122000009000BF0098411E0091FAD20EE080E0CD
:10123000C0F80080FFF7CCFD074604E0FFF7C8FDCB
:10124000C01B022875D8686A8007F7D42078400749
:1012500060D5E8690027C00008D4E86940F08050F4
:10126000E861E869012700F0805000905C4801685F
:10127000C90513D40168834641F480710160FFF70A
:10128000A7FD824606E000BFFFF7A2FDA0EB0A0023
:1012900064284ED8DBF80000C005F5D5E0680128C9
:1012A0000AD008B1052813D0286A20F0010028626E
:1012B000286A20F0040002E0286A40F00100286259
:1012C000E06841F2883B98B1FFF782FD82460BE06F
:1012D000286A40F004002862EEE700BFFFF778FDBF
:1012E000A0EB0A0159455AD8286A8007F6D50CE0C8
:1012F000FFF76EFD824605E0FFF76AFDA0EB0A01ED
:1013000059454CD8286A8007F6D41FB1E86920F007
:101310008050E861E06988B36968C1F381010229FE
:1013200044D00228C6F8608004D0FFF751FD04467F
:1013300038E034E0FFF74CFD074604E0FFF748FDD6
:10134000C01B02282BD828688001F7D4206AB0F58A
:10135000803F05D16868A16820F4003008436860C8
:10136000D4E908010843696821F4741108436860EE
:10137000C6F86090FFF72CFD044606E025E000BFAC
:10138000FFF726FD001B022809D828688001F7D541
:101390001BE000BFFFF71CFD001B022802D9032041
:1013A000BDE8F88F28688001F4D40EE00128F7D05A
:1013B0006868226A00F48031914204D1616A00F4C5
:1013C0007010884201D00120EAE70020E8E7000021
:1013D00000100240000042428004424218000020F7
:1013E0000070004010B5401EB0F1807F01D3012095
:1013F00010BD4FF0E02460610F21601700F085FD03
:101400000020A06107202061002010BD70477047B8
:10141000F8B5016804460868CA684B6910F00F0FF8
:101420004FF0000559D003F0010602F490773743DE
:1014300065D0C10705D0D10503D5616C41F001012C
:101440006164410705D5D90703D0616C41F0020101
:101450006164810705D5D90703D0616C41F00401AF
:101460006164010707D502F02001314303D0616CAC
:1014700041F008016164616C00293AD0800604D50E
:10148000900602D5204600F027FC20684069616C78
:10149000C0F38010090700D460B3204600F0F5FBCC
:1014A00020684069400621D52068143050E8001FAC
:1014B00021F0400140E80012002AF5D1E06BA8B10C
:1014C0006D494163E06BFFF72BFB002811D0E06B07
:1014D000416B01B0BDE8F040084783060FD5930685
:1014E0000DD52046BDE8F84000F0F6BB2046FFF7DA
:1014F0008EFFF8BD2046FFF78AFF6564F8BD266BB6
:101500002023012E7CD1C6067AD5D60678D5086868
:101510004868009048694FF00206400640D5E16BEC
:10152000086840680004000CE8D0A28D8242E5D92A
:10153000E085886920282DD020680C3050E8001FF5
:1015400021F4807140E80012002AF5D1206814309F
:1015500050E8001F21F0010140E80012002AF5D1F7
:101560002068143050E8001F21F0400140E80012CC
:10157000002AF5D184F84230256320680C3050E809
:10158000001F21F0100140E80012002AF5D1E06BA5
:10159000FFF7A3FA6663A08DE18D401A81B22AE0BD
:1015A000A08DE18D401A81B2E08D0028A6D00029DF
:1015B000A4D022680C3252E8000F20F4907042E868
:1015C0000007002FF5D12068143050E8002F22F0DA
:1015D000010240E80027002FF5D184F8423025634E
:1015E00020680C3050E8002F22F0100240E8002361
:1015F000002BF5D166632046FFF708FFF8BDFFE733
:1016000005062BD5150629D594F841002128F5D1DA
:10161000A068B0F5805F01D12069B0B1206A411C9B
:101620002162216800784860E08C401E0004000CB4
:10163000E084E3D12068C16821F08001C1602068A6
:10164000C16841F04001C160D8E7206A0088C0F35A
:1016500008004860206A801C2062E5E74006CDD57E
:101660005006CBD5CA68204622F04002CA6084F8F2
:10167000413000F0F9F8C1E77B1C000870B50400A8
:1016800004D094F84100002510B106E0012070BD9F
:1016900084F84050204600F023F8242084F84100CC
:1016A0002068C16821F40051C160204600F076FB3B
:1016B0002068016921F4904101612068416921F0AD
:1016C0002A0141612068C16841F40051C16065642C
:1016D000202084F8410084F842006563002070BD3A
:1016E00030B585B0002400940194029403940068FE
:1016F000184988422CD11848816941F480418161A0
:10170000816901F480410491816941F004018161A2
:101710008069124D00F0040004904FF400700090B6
:10172000022001900320039069462846FFF756FAED
:101730002815CDE90004694628460294FFF74EFAC1
:10174000002211462520FFF7AFFB2520FFF79EFB67
:1017500005B030BD003801400010024000080140D3
:1017600090F84230202B01D00220704721B11AB1ED
:101770000023036300F06EBB0120704700680E4930
:10178000884217D10D490E4A08464B7880780A2BBB
:101790000AD0312802D21354401C88700749012214
:1017A000491C0848FFF7DCBF002313540120C87010
:1017B0008B70F3E770470000003801400000002004
:1017C00030000020640000202DE9F843044690F822
:1017D0004100984616460D46202802D00220BDE85A
:1017E000F88385B17EB100206064212084F8410037
:1017F000FFF7EEFAA6848146E684A0682027B0F5BC
:10180000805F02D003E00120E9E7206910B12E4695
:1018100000250EE000260CE08021204600F035FB7C
:10182000A8B9C6B116F8010B21684860E08C401ECB
:10183000E084E08C4B464FF00002CDF80080002899
:10184000EAD14FF04001204600F01FFB40B184F880
:1018500041700320C3E735F8020BC0F30800E3E74B
:1018600084F841700020BAE77047FEE708B5002011
:101870000090401C00900A28FBDB08BD70B51C4E90
:1018800005460024280601D5012200E0002280211F
:101890003046FFF798FAFFF7E9FF01224021304672
:1018A000FFF791FAFFF7E2FF002240213046FFF7F1
:1018B0008AFAFFF7DBFF6806050E641C082CE1DBE3
:1018C000012280213046FFF77EFAFFF7CFFF012289
:1018D00040213046FFF777FAFFF7C8FF002240218A
:1018E0003046FFF770FABDE87040FFF7BFBF000059
:1018F000000C014010B50E4C012280212046FFF75C
:1019000062FA012240212046FFF75DFAFFF7AEFFA1
:10191000002280212046FFF756FAFFF7A7FF00229A
:1019200040212046FFF74FFABDE81040FFF79EBF69
:10193000000C014010B50C4C002280212046FFF71E
:1019400042FAFFF793FF012240212046FFF73BFABE
:10195000FFF78CFF012280212046FFF734FABDE813
:101960001040FFF783BF0000000C01402DE9FF414C
:10197000002420200125CDE90004144FCDE90254B4
:1019800069463846FFF72AF96802009002200326CC
:101990000190694603963846FFF720F9A802CDE981
:1019A0000004694638460294FFF718F9084C0022F3
:1019B000C0212046FFF707FAC020CDE9000569469F
:1019C00003962046FFF70AF9BDE8FF8100080140B1
:1019D000000C01400E4810B50C4901604FF416513F
:1019E0004160002181600C22C160C0E90412816164
:1019F000C161FFF743FE002211462520FFF754FA8C
:101A0000BDE810402520FFF741BA00000038014032
:101A100064000020FEE7FEE770B5002404F1B0008A
:101A2000C0B200F0DFF8002000F0DCF8102000F079
:101A3000D9F80025002000F0E6F86D1CEDB2802DED
:101A4000F8D3641CE4B2082CE8D370BD10B5642050
:101A5000FFF7B2F8AE2000F0C5F8202000F0C2F881
:101A6000022000F0BFF8002000F0BCF8102000F0C9
:101A7000B9F8402000F0B6F8B02000F0B3F88120AB
:101A800000F0B0F8FF2000F0ADF8A12000F0AAF8B7
:101A9000A62000F0A7F8A82000F0A4F83F2000F04E
:101AA000A1F8C82000F09EF8D32000F09BF8002099
:101AB00000F098F8DA2000F095F8122000F092F883
:101AC0008D2000F08FF8142000F08CF8BDE8104055
:101AD000AF2000F087B8000070B5203A04465F2AB6
:101AE0001AD2B031D5B2C8B200F07CF8102040EA6A
:101AF000141000F077F804F00F0000F073F80749B5
:101B000005EB4500002401EB4005285D00F07BF863
:101B1000641CE4B2062CF8D370BD00002C21000830
:101B20002DE9FF4F11074FEA116A59060E0E0024E6
:101B3000102181B041EA101BDFF8848000F00F0013
:101B40004FF00109009002982044B030C0B200F07C
:101B500049F8584600F046F8009800F043F8002590
:101B60000AEB0500C7B207F00701C1F1070C00201E
:101B70000246494609FA0CF302EBC40C0CFB06FCC6
:101B80000CEBD70C0CF0FF0C18F80CC01CEA030F80
:101B900005D001FA02FC4CEA000C0CF0FF00521CCC
:101BA000D2B2082AE8D300F02EF86D1CEDB2102D49
:101BB000D6D3641CE4B2022CC5D305B0BDE8F08FC7
:101BC0006623000870B514460E46054606E0314609
:101BD0002846FFF781FFAD1DEDB2641C2278002A74
:101BE000F5D170BD10B50446FFF784FE7820FFF7ED
:101BF00045FE0020FFF742FE2046FFF73FFEBDE80E
:101C00001040FFF797BE10B50446FFF773FE78202B
:101C1000FFF734FE4020FFF731FE2046FFF72EFE8F
:101C2000BDE81040FFF786BE70477047FFF7D6B893
:101C300030B58FB028216846FEF71CFC14210AA895
:101C4000FEF718FC012000900004002502240995ED
:101C50000190CDE907406846FFF734FA0F20CDE93F
:101C60000A0480200C90C000CDE90D0500210AA8CF
:101C7000FFF74CF90FB030BD704710B5406A002136
:101C8000C185C184FFF7C3FB10BD01680C3151E869
:101C9000002F22F4907241E80023002BF5D1016857
:101CA000143151E8002F22F0010241E80023002BFB
:101CB000F5D1016B012909D101680C3151E8002FE0
:101CC00022F0100241E80023002BF5D1202180F8FA
:101CD000421000210163704708B590F84210222994
:101CE00001D0022008BD82684FF480539A4201D18E
:101CF000016921B1816A9A421BD04AB10AE00268A7
:101D0000816A5268C2F308020A80816A891C08E06D
:101D1000026972B10268526802F07F020A70816A39
:101D2000491C8162C18D491E0904090CC18503D07B
:101D30001BE002685268F1E70168CA6822F02002DD
:101D4000CA600168CA6822F48072CA6001684A6980
:101D500022F001024A61202180F8421000214163F3
:101D6000026B012A03D0FFF709FD002008BD0163C3
:101D700001680C3151E8002F22F0100241E80023E5
:101D8000002BF5D101680A68D20602D50A684968B5
:101D90000091818DFFF73AFBE7E7000070B504463C
:101DA00000680169E26821F4405111430161216931
:101DB000A0680843616908432168CA6841F20C635E
:101DC0009A430243CA6020684169A26921F44071C4
:101DD000114341611E492068884202D1FFF73CF956
:101DE00001E0FFF729F900EBC00101EB0012606888
:101DF00064218000B2FBF0F3B3FBF1F36FF018063F
:101E00007343B2FBF0F5B2FBF0F605EB830532232A
:101E100003EB0515B5FBF1F5B6FBF1F605F0F005A2
:101E200005EB0615B2FBF0F6B2FBF0F0B0FBF1F0FB
:101E30006FF01802504306EB800003EB0010B0FB7C
:101E4000F1F0216800F00F002844886070BD0000A8
:101E50000038014081628285C285002141642221CF
:101E600080F84210016921B10168CA6842F48072A9
:101E7000CA6001684A6942F001024A610068C168AB
:101E800041F02001C160002070472DE9F8439846D9
:101E900017460D460446089E24E0701C22D0FEF72B
:101EA00097FFA0EB0800B0421AD8CEB12068C168F5
:101EB000490717D5802D15D0402D13D00168C9438F
:101EC00009070FD401680025406800902046FFF7FD
:101ED000DCFE0820606484F840500120BDE8F883EF
:101EE0000320FBE72068006835EA000004D00020EA
:101EF000B842D2D00020F1E70120F9E70148FFF70E
:101F000087BA000064000020FEE70907090E0028D8
:101F100004DB00F1E02080F80014704700F00F00AF
:101F200000F1E02080F8141D704700001CB5FEF79A
:101F30005DFFFFF77DFE6148816941F00401816129
:101F4000816901F004010091816941F0080181611A
:101F5000816901F008010091816941F4804181614A
:101F6000806900F480400090FFF700FDFFF732FD2C
:101F7000C820FEF721FEFFF769FDFFF74DFD0122A6
:101F80004F495048FFF7ECFB4D4C4E4D4E4F00264D
:101F9000641E28680168090707D501684068009039
:101FA000012247494748FFF7DBFBE07860B101AB0E
:101FB0006A4646A14948FEF799F9022803D10098DC
:101FC00060600198A060E670444845A114386268DA
:101FD000FEF708F9414A0021143A0846FFF7F2FDDE
:101FE0003E4843A11438A268FEF7FCF83B4A0221A0
:101FF000143A0020FFF7E6FDA068B8B1411E4F2952
:1020000029D204220C2311460020FFF789FD0C235E
:10201000052204211020FFF783FD0C230622042152
:102020002020FFF77DFD0C2307222AE000220C234D
:1020300004211046FFF774FD0C2301220421102017
:10204000FFF76EFD0C23022204212020FFF768FD1C
:102050000C23032215E0502817DB0C23082204214F
:102060000020FFF75DFD0C23092204211020FFF75B
:1020700057FD0C230A2204212020FFF751FD0C23D9
:102080000B2204213020FFF74BFD20213846FEF7BC
:1020900095FE20B126703220FEF78EFD79E720787C
:1020A0000028F8D10120207053208DF8000064230F
:1020B000012269460348FFF787FBECE70010024066
:1020C00001000020640000200008014050574D31FD
:1020D0003A25642C50574D323A25640030000020D8
:1020E00050574D313A25642525202020000000005E
:1020F00050574D323A25642525202020000000004D
:1021000010B500290AD00878002807D0054878447F
:10211000FEF79AFC002801D0002010BD0248784448
:1021200010BD0000220400001A040000000000009E
:1021300000000000002F000000000700070000144E
:102140007F147F1400242A7F2A120023130864625C
:1021500000364955225000000503000000001C22F3
:102160004100000041221C000014083E0814000831
:10217000083E080800004020000000080808080881
:10218000000060600000002010080402003E514979
:10219000453E0000427F4000004261514946002117
:1021A00041454B31001814127F1000274545453931
:1021B000003C4A494930000171090503003649498C
:1021C000493600064949291E000036360000000045
:1021D0005636000000000814224100141414141490
:1021E0000041221408000002015109060032497919
:1021F000413E007E1111117E007F49494936003E63
:1022000041414122007F4141221C007F494949410F
:10221000007F09090101003E41415132007F080859
:10222000087F0000417F4100002040413F01007FC6
:1022300008142241007F40404040007F0204027F9A
:10224000007F0408107F003E4141413E007F0909A4
:102250000906003E4151215E007F091929460046CA
:10226000494949310001017F0101003F4040403FA1
:10227000001F2040201F003F4038403F00631408EB
:1022800014630003047804030061514945430000CE
:102290007F414100000204081020000041417F00FE
:1022A00000040201020400404040404000000102DE
:1022B0000400002054545478007F484444380038C7
:1022C0004444442000384444487F0038545454184F
:1022D00000087E09010200081454543C007F0804E1
:1022E00004780000447D4000002040443D00007F11
:1022F000102844000000417F4000007C041804784E
:10230000007C08040478003844444438007C1414E9
:10231000140800081414187C007C08040408004801
:102320005454542000043F444020003C4040207C52
:10233000001C2040201C003C4030403C0044281041
:102340002844000C5050503C004464544C4400005D
:10235000083641000000007F000000004136080000
:10236000000804081008010010001080010000009F
:102370000100000009000040010000000100010010
:1023800011F0104001007FFC111023F809002040DB
:1023900000803FF011100100111017FC0100010036
:1023A00009201000090017FC3FFE201009203FF80B
:1023B00011102000010001007FFE100011FE1040EE
:1023C000222020107FFE2108FD1023F811000100BB
:1023D00040020000128003F822203FF04002210852
:1023E00011106208110001009FF407FC32800248BE
:1023F0003FFC20049FF42108311063F811F811000C
:102400001010F0403480F2482220200410103FF8D1
:102410003910A000110011F81FF0108050F813F8C7
:1024200022201FFC1FF0210855102FFE1100110063
:1024300001001110908010E023E00000010021084D
:1024400055102802110011003FF812081080115099
:10245000200008203FF82108911023F811001100F6
:10246000210817FC108012482FF0082021083FF89F
:1024700011122040110011002108120410FC144414
:102480002410FFFE2108210A111220401100110022
:10249000212810001080104042200820212801022D
:1024A0001212204011001100211028001080280075
:1024B00041C0102021100102120E2140FFFEFFFE3C
:1024C000010047FE108047FE86302020010000FEFC
:1024D00014002080000000000100000010800000B7
:1024E000380E402001000102020304050607080916
:1024F0000A0B0C0D0E0F1010000000000000000071
:102500000102030406070809000000000102030499
:1025100040260008000000201C00000028010008E0
:102520005C2600081C000020F4060000440100089E
:102530001001000043000000F8FFFFFF0040404092
:102540004040404040404141414141404040404086
:102550004040404040404040404040404005020232
:1025600002020202020202020202020202202020F1
:10257000202020202020200202020202020290904D
:10258000909090901010101010101010101010104B
:10259000101010101010101002020202020288889F
:1025A00088888888080808080808080808080808AB
:1025B0000808080808080808020202024000000093
:1025C000000000000000000000000000000000000B
:1025D00000000000000000000000000000000000FB
:1025E00000000000000000000000000000000000EB
:1025F00000000000000000000000000000000000DB
:1026000000000000000000000000000000000000CA
:1026100000000000000000000000000000000000BA
:1026200000000000000000000000000000000000AA
:10263000000000000000000000000000000000009A
:102640000000000000000000000000000100000089
:0C265000100000000000000000127A00E2
:04000005080000ED02
:00000001FF
